{
	"contracts/Marketplace.sol": {
		"Marketplace": {
			"abi": [
				{
					"inputs": [
						{
							"internalType": "uint256",
							"name": "_feePercent",
							"type": "uint256"
						}
					],
					"stateMutability": "nonpayable",
					"type": "constructor"
				},
				{
					"anonymous": false,
					"inputs": [
						{
							"indexed": false,
							"internalType": "uint256",
							"name": "itemId",
							"type": "uint256"
						},
						{
							"indexed": true,
							"internalType": "address",
							"name": "nft",
							"type": "address"
						},
						{
							"indexed": false,
							"internalType": "uint256",
							"name": "price",
							"type": "uint256"
						},
						{
							"indexed": true,
							"internalType": "address",
							"name": "seller",
							"type": "address"
						},
						{
							"indexed": true,
							"internalType": "address",
							"name": "buyer",
							"type": "address"
						}
					],
					"name": "Bought",
					"type": "event"
				},
				{
					"anonymous": false,
					"inputs": [
						{
							"indexed": false,
							"internalType": "uint256",
							"name": "itemId",
							"type": "uint256"
						},
						{
							"indexed": true,
							"internalType": "address",
							"name": "nft",
							"type": "address"
						},
						{
							"indexed": false,
							"internalType": "uint256",
							"name": "tokenId",
							"type": "uint256"
						},
						{
							"indexed": false,
							"internalType": "uint256",
							"name": "price",
							"type": "uint256"
						},
						{
							"indexed": true,
							"internalType": "address",
							"name": "seller",
							"type": "address"
						}
					],
					"name": "Offered",
					"type": "event"
				},
				{
					"inputs": [],
					"name": "feeAccount",
					"outputs": [
						{
							"internalType": "address payable",
							"name": "",
							"type": "address"
						}
					],
					"stateMutability": "view",
					"type": "function"
				},
				{
					"inputs": [],
					"name": "feePercent",
					"outputs": [
						{
							"internalType": "uint256",
							"name": "",
							"type": "uint256"
						}
					],
					"stateMutability": "view",
					"type": "function"
				},
				{
					"inputs": [
						{
							"internalType": "uint256",
							"name": "_itemId",
							"type": "uint256"
						}
					],
					"name": "getTotalPrice",
					"outputs": [
						{
							"internalType": "uint256",
							"name": "",
							"type": "uint256"
						}
					],
					"stateMutability": "view",
					"type": "function"
				},
				{
					"inputs": [],
					"name": "itemCount",
					"outputs": [
						{
							"internalType": "uint256",
							"name": "",
							"type": "uint256"
						}
					],
					"stateMutability": "view",
					"type": "function"
				},
				{
					"inputs": [
						{
							"internalType": "uint256",
							"name": "",
							"type": "uint256"
						}
					],
					"name": "items",
					"outputs": [
						{
							"internalType": "uint256",
							"name": "itemId",
							"type": "uint256"
						},
						{
							"internalType": "contract IERC721",
							"name": "nft",
							"type": "address"
						},
						{
							"internalType": "uint256",
							"name": "tokenId",
							"type": "uint256"
						},
						{
							"internalType": "uint256",
							"name": "price",
							"type": "uint256"
						},
						{
							"internalType": "address payable",
							"name": "seller",
							"type": "address"
						},
						{
							"internalType": "bool",
							"name": "sold",
							"type": "bool"
						}
					],
					"stateMutability": "view",
					"type": "function"
				},
				{
					"inputs": [
						{
							"internalType": "contract IERC721",
							"name": "_nft",
							"type": "address"
						},
						{
							"internalType": "uint256",
							"name": "_tokenId",
							"type": "uint256"
						},
						{
							"internalType": "uint256",
							"name": "_price",
							"type": "uint256"
						}
					],
					"name": "makeItem",
					"outputs": [],
					"stateMutability": "nonpayable",
					"type": "function"
				},
				{
					"inputs": [
						{
							"internalType": "uint256",
							"name": "_itemId",
							"type": "uint256"
						}
					],
					"name": "purchaseItem",
					"outputs": [],
					"stateMutability": "payable",
					"type": "function"
				}
			],
			"devdoc": {
				"kind": "dev",
				"methods": {},
				"version": 1
			},
			"evm": {
				"assembly": "    /* \"contracts/Marketplace.sol\":198:2069  contract Marketplace is ReentrancyGuard {\r... */\n  mstore(0x40, 0xc0)\n    /* \"contracts/Marketplace.sol\":904:1021  constructor (uint _feePercent) {\r... */\n  callvalue\n  dup1\n  iszero\n  tag_1\n  jumpi\n  0x00\n  dup1\n  revert\ntag_1:\n  pop\n  mload(0x40)\n  sub(codesize, bytecodeSize)\n  dup1\n  bytecodeSize\n  dup4\n  codecopy\n  dup2\n  dup2\n  add\n  0x40\n  mstore\n  dup2\n  add\n  swap1\n  tag_2\n  swap2\n  swap1\n  tag_3\n  jump\t// in\ntag_2:\n    /* \"@openzeppelin/contracts@4.5.0/security/ReentrancyGuard.sol\":1701:1702  1 */\n  0x01\n    /* \"@openzeppelin/contracts@4.5.0/security/ReentrancyGuard.sol\":1806:1813  _status */\n  0x00\n    /* \"@openzeppelin/contracts@4.5.0/security/ReentrancyGuard.sol\":1806:1828  _status = _NOT_ENTERED */\n  dup2\n  swap1\n  sstore\n  pop\n    /* \"contracts/Marketplace.sol\":967:977  msg.sender */\n  caller\n    /* \"contracts/Marketplace.sol\":946:978  feeAccount = payable(msg.sender) */\n  0xffffffffffffffffffffffffffffffffffffffff\n  and\n  0x80\n  dup2\n  0xffffffffffffffffffffffffffffffffffffffff\n  and\n  0x60\n  shl\n  dup2\n  mstore\n  pop\n  pop\n    /* \"contracts/Marketplace.sol\":1002:1013  _feePercent */\n  dup1\n    /* \"contracts/Marketplace.sol\":989:1013  feePercent = _feePercent */\n  0xa0\n  dup2\n  dup2\n  mstore\n  pop\n  pop\n    /* \"contracts/Marketplace.sol\":904:1021  constructor (uint _feePercent) {\r... */\n  pop\n    /* \"contracts/Marketplace.sol\":198:2069  contract Marketplace is ReentrancyGuard {\r... */\n  jump(tag_8)\n    /* \"#utility.yul\":7:150   */\ntag_10:\n    /* \"#utility.yul\":64:69   */\n  0x00\n    /* \"#utility.yul\":95:101   */\n  dup2\n    /* \"#utility.yul\":89:102   */\n  mload\n    /* \"#utility.yul\":80:102   */\n  swap1\n  pop\n    /* \"#utility.yul\":111:144   */\n  tag_12\n    /* \"#utility.yul\":138:143   */\n  dup2\n    /* \"#utility.yul\":111:144   */\n  tag_13\n  jump\t// in\ntag_12:\n    /* \"#utility.yul\":70:150   */\n  swap3\n  swap2\n  pop\n  pop\n  jump\t// out\n    /* \"#utility.yul\":156:440   */\ntag_3:\n    /* \"#utility.yul\":226:232   */\n  0x00\n    /* \"#utility.yul\":275:277   */\n  0x20\n    /* \"#utility.yul\":263:272   */\n  dup3\n    /* \"#utility.yul\":254:261   */\n  dup5\n    /* \"#utility.yul\":250:273   */\n  sub\n    /* \"#utility.yul\":246:278   */\n  slt\n    /* \"#utility.yul\":243:245   */\n  iszero\n  tag_15\n  jumpi\n    /* \"#utility.yul\":291:292   */\n  0x00\n    /* \"#utility.yul\":288:289   */\n  dup1\n    /* \"#utility.yul\":281:293   */\n  revert\n    /* \"#utility.yul\":243:245   */\ntag_15:\n    /* \"#utility.yul\":334:335   */\n  0x00\n    /* \"#utility.yul\":359:423   */\n  tag_16\n    /* \"#utility.yul\":415:422   */\n  dup5\n    /* \"#utility.yul\":406:412   */\n  dup3\n    /* \"#utility.yul\":395:404   */\n  dup6\n    /* \"#utility.yul\":391:413   */\n  add\n    /* \"#utility.yul\":359:423   */\n  tag_10\n  jump\t// in\ntag_16:\n    /* \"#utility.yul\":349:423   */\n  swap2\n  pop\n    /* \"#utility.yul\":305:433   */\n  pop\n    /* \"#utility.yul\":233:440   */\n  swap3\n  swap2\n  pop\n  pop\n  jump\t// out\n    /* \"#utility.yul\":446:523   */\ntag_17:\n    /* \"#utility.yul\":483:490   */\n  0x00\n    /* \"#utility.yul\":512:517   */\n  dup2\n    /* \"#utility.yul\":501:517   */\n  swap1\n  pop\n    /* \"#utility.yul\":491:523   */\n  swap2\n  swap1\n  pop\n  jump\t// out\n    /* \"#utility.yul\":529:651   */\ntag_13:\n    /* \"#utility.yul\":602:626   */\n  tag_20\n    /* \"#utility.yul\":620:625   */\n  dup2\n    /* \"#utility.yul\":602:626   */\n  tag_17\n  jump\t// in\ntag_20:\n    /* \"#utility.yul\":595:600   */\n  dup2\n    /* \"#utility.yul\":592:627   */\n  eq\n    /* \"#utility.yul\":582:584   */\n  tag_21\n  jumpi\n    /* \"#utility.yul\":641:642   */\n  0x00\n    /* \"#utility.yul\":638:639   */\n  dup1\n    /* \"#utility.yul\":631:643   */\n  revert\n    /* \"#utility.yul\":582:584   */\ntag_21:\n    /* \"#utility.yul\":572:651   */\n  pop\n  jump\t// out\n    /* \"contracts/Marketplace.sol\":198:2069  contract Marketplace is ReentrancyGuard {\r... */\ntag_8:\n  shr(0x60, mload(0x80))\n  mload(0xa0)\n  codecopy(0x00, dataOffset(sub_0), dataSize(sub_0))\n  0x00\n  assignImmutable(\"0xca1c98d2cee18ab5da51a9df7bbf45ca91ab83c708e48aed82f5115320306ab4\")\n  0x00\n  assignImmutable(\"0x9abd569a0444be7ce52d46a7fb79009940c0c0442116f15017290ff13cb4450c\")\n  return(0x00, dataSize(sub_0))\nstop\n\nsub_0: assembly {\n        /* \"contracts/Marketplace.sol\":198:2069  contract Marketplace is ReentrancyGuard {\r... */\n      mstore(0x40, 0x80)\n      jumpi(tag_1, lt(calldatasize, 0x04))\n      shr(0xe0, calldataload(0x00))\n      dup1\n      0xbfb231d2\n      gt\n      tag_9\n      jumpi\n      dup1\n      0xbfb231d2\n      eq\n      tag_5\n      jumpi\n      dup1\n      0xca7dd375\n      eq\n      tag_6\n      jumpi\n      dup1\n      0xd38ea5bf\n      eq\n      tag_7\n      jumpi\n      dup1\n      0xfa00afc7\n      eq\n      tag_8\n      jumpi\n      jump(tag_1)\n    tag_9:\n      dup1\n      0x65e17c9d\n      eq\n      tag_2\n      jumpi\n      dup1\n      0x6bfb0d01\n      eq\n      tag_3\n      jumpi\n      dup1\n      0x7fd6f15c\n      eq\n      tag_4\n      jumpi\n    tag_1:\n      0x00\n      dup1\n      revert\n        /* \"contracts/Marketplace.sol\":247:290  address payable public immutable feeAccount */\n    tag_2:\n      callvalue\n      dup1\n      iszero\n      tag_10\n      jumpi\n      0x00\n      dup1\n      revert\n    tag_10:\n      pop\n      tag_11\n      tag_12\n      jump\t// in\n    tag_11:\n      mload(0x40)\n      tag_13\n      swap2\n      swap1\n      tag_14\n      jump\t// in\n    tag_13:\n      mload(0x40)\n      dup1\n      swap2\n      sub\n      swap1\n      return\n        /* \"contracts/Marketplace.sol\":336:357  uint public itemCount */\n    tag_3:\n      callvalue\n      dup1\n      iszero\n      tag_15\n      jumpi\n      0x00\n      dup1\n      revert\n    tag_15:\n      pop\n      tag_16\n      tag_17\n      jump\t// in\n    tag_16:\n      mload(0x40)\n      tag_18\n      swap2\n      swap1\n      tag_19\n      jump\t// in\n    tag_18:\n      mload(0x40)\n      dup1\n      swap2\n      sub\n      swap1\n      return\n        /* \"contracts/Marketplace.sol\":297:329  uint public immutable feePercent */\n    tag_4:\n      callvalue\n      dup1\n      iszero\n      tag_20\n      jumpi\n      0x00\n      dup1\n      revert\n    tag_20:\n      pop\n      tag_21\n      tag_22\n      jump\t// in\n    tag_21:\n      mload(0x40)\n      tag_23\n      swap2\n      swap1\n      tag_19\n      jump\t// in\n    tag_23:\n      mload(0x40)\n      dup1\n      swap2\n      sub\n      swap1\n      return\n        /* \"contracts/Marketplace.sol\":535:569  mapping(uint => Item) public items */\n    tag_5:\n      callvalue\n      dup1\n      iszero\n      tag_24\n      jumpi\n      0x00\n      dup1\n      revert\n    tag_24:\n      pop\n      tag_25\n      0x04\n      dup1\n      calldatasize\n      sub\n      dup2\n      add\n      swap1\n      tag_26\n      swap2\n      swap1\n      tag_27\n      jump\t// in\n    tag_26:\n      tag_28\n      jump\t// in\n    tag_25:\n      mload(0x40)\n      tag_29\n      swap7\n      swap6\n      swap5\n      swap4\n      swap3\n      swap2\n      swap1\n      tag_30\n      jump\t// in\n    tag_29:\n      mload(0x40)\n      dup1\n      swap2\n      sub\n      swap1\n      return\n        /* \"contracts/Marketplace.sol\":1924:2064  function getTotalPrice(uint _itemId) view public returns(uint) {\r... */\n    tag_6:\n      callvalue\n      dup1\n      iszero\n      tag_31\n      jumpi\n      0x00\n      dup1\n      revert\n    tag_31:\n      pop\n      tag_32\n      0x04\n      dup1\n      calldatasize\n      sub\n      dup2\n      add\n      swap1\n      tag_33\n      swap2\n      swap1\n      tag_27\n      jump\t// in\n    tag_33:\n      tag_34\n      jump\t// in\n    tag_32:\n      mload(0x40)\n      tag_35\n      swap2\n      swap1\n      tag_19\n      jump\t// in\n    tag_35:\n      mload(0x40)\n      dup1\n      swap2\n      sub\n      swap1\n      return\n        /* \"contracts/Marketplace.sol\":1585:1916  function purchaseItem(uint _itemId) external payable nonReentrant {\r... */\n    tag_7:\n      tag_36\n      0x04\n      dup1\n      calldatasize\n      sub\n      dup2\n      add\n      swap1\n      tag_37\n      swap2\n      swap1\n      tag_27\n      jump\t// in\n    tag_37:\n      tag_38\n      jump\t// in\n    tag_36:\n      stop\n        /* \"contracts/Marketplace.sol\":1029:1577  function makeItem(IERC721 _nft, uint _tokenId, uint _price) external nonReentrant {\r... */\n    tag_8:\n      callvalue\n      dup1\n      iszero\n      tag_39\n      jumpi\n      0x00\n      dup1\n      revert\n    tag_39:\n      pop\n      tag_40\n      0x04\n      dup1\n      calldatasize\n      sub\n      dup2\n      add\n      swap1\n      tag_41\n      swap2\n      swap1\n      tag_42\n      jump\t// in\n    tag_41:\n      tag_43\n      jump\t// in\n    tag_40:\n      stop\n        /* \"contracts/Marketplace.sol\":247:290  address payable public immutable feeAccount */\n    tag_12:\n      immutable(\"0x9abd569a0444be7ce52d46a7fb79009940c0c0442116f15017290ff13cb4450c\")\n      dup2\n      jump\t// out\n        /* \"contracts/Marketplace.sol\":336:357  uint public itemCount */\n    tag_17:\n      sload(0x01)\n      dup2\n      jump\t// out\n        /* \"contracts/Marketplace.sol\":297:329  uint public immutable feePercent */\n    tag_22:\n      immutable(\"0xca1c98d2cee18ab5da51a9df7bbf45ca91ab83c708e48aed82f5115320306ab4\")\n      dup2\n      jump\t// out\n        /* \"contracts/Marketplace.sol\":535:569  mapping(uint => Item) public items */\n    tag_28:\n      mstore(0x20, 0x02)\n      dup1\n      0x00\n      mstore\n      keccak256(0x00, 0x40)\n      0x00\n      swap2\n      pop\n      swap1\n      pop\n      dup1\n      0x00\n      add\n      sload\n      swap1\n      dup1\n      0x01\n      add\n      0x00\n      swap1\n      sload\n      swap1\n      0x0100\n      exp\n      swap1\n      div\n      0xffffffffffffffffffffffffffffffffffffffff\n      and\n      swap1\n      dup1\n      0x02\n      add\n      sload\n      swap1\n      dup1\n      0x03\n      add\n      sload\n      swap1\n      dup1\n      0x04\n      add\n      0x00\n      swap1\n      sload\n      swap1\n      0x0100\n      exp\n      swap1\n      div\n      0xffffffffffffffffffffffffffffffffffffffff\n      and\n      swap1\n      dup1\n      0x04\n      add\n      0x14\n      swap1\n      sload\n      swap1\n      0x0100\n      exp\n      swap1\n      div\n      0xff\n      and\n      swap1\n      pop\n      dup7\n      jump\t// out\n        /* \"contracts/Marketplace.sol\":1924:2064  function getTotalPrice(uint _itemId) view public returns(uint) {\r... */\n    tag_34:\n        /* \"contracts/Marketplace.sol\":1981:1985  uint */\n      0x00\n        /* \"contracts/Marketplace.sol\":2052:2055  100 */\n      0x64\n        /* \"contracts/Marketplace.sol\":2037:2047  feePercent */\n      immutable(\"0xca1c98d2cee18ab5da51a9df7bbf45ca91ab83c708e48aed82f5115320306ab4\")\n        /* \"contracts/Marketplace.sol\":2031:2034  100 */\n      0x64\n        /* \"contracts/Marketplace.sol\":2031:2047  100 + feePercent */\n      tag_45\n      swap2\n      swap1\n      tag_46\n      jump\t// in\n    tag_45:\n        /* \"contracts/Marketplace.sol\":2007:2012  items */\n      0x02\n        /* \"contracts/Marketplace.sol\":2007:2021  items[_itemId] */\n      0x00\n        /* \"contracts/Marketplace.sol\":2013:2020  _itemId */\n      dup6\n        /* \"contracts/Marketplace.sol\":2007:2021  items[_itemId] */\n      dup2\n      mstore\n      0x20\n      add\n      swap1\n      dup2\n      mstore\n      0x20\n      add\n      0x00\n      keccak256\n        /* \"contracts/Marketplace.sol\":2007:2027  items[_itemId].price */\n      0x03\n      add\n      sload\n        /* \"contracts/Marketplace.sol\":2007:2048  items[_itemId].price * (100 + feePercent) */\n      tag_47\n      swap2\n      swap1\n      tag_48\n      jump\t// in\n    tag_47:\n        /* \"contracts/Marketplace.sol\":2006:2055  (items[_itemId].price * (100 + feePercent)) / 100 */\n      tag_49\n      swap2\n      swap1\n      tag_50\n      jump\t// in\n    tag_49:\n        /* \"contracts/Marketplace.sol\":1998:2056  return ((items[_itemId].price * (100 + feePercent)) / 100) */\n      swap1\n      pop\n        /* \"contracts/Marketplace.sol\":1924:2064  function getTotalPrice(uint _itemId) view public returns(uint) {\r... */\n      swap2\n      swap1\n      pop\n      jump\t// out\n        /* \"contracts/Marketplace.sol\":1585:1916  function purchaseItem(uint _itemId) external payable nonReentrant {\r... */\n    tag_38:\n        /* \"@openzeppelin/contracts@4.5.0/security/ReentrancyGuard.sol\":1744:1745  2 */\n      0x02\n        /* \"@openzeppelin/contracts@4.5.0/security/ReentrancyGuard.sol\":2325:2332  _status */\n      sload(0x00)\n        /* \"@openzeppelin/contracts@4.5.0/security/ReentrancyGuard.sol\":2325:2344  _status != _ENTERED */\n      eq\n      iszero\n        /* \"@openzeppelin/contracts@4.5.0/security/ReentrancyGuard.sol\":2317:2380  require(_status != _ENTERED, \"ReentrancyGuard: reentrant call\") */\n      tag_52\n      jumpi\n      mload(0x40)\n      0x08c379a000000000000000000000000000000000000000000000000000000000\n      dup2\n      mstore\n      0x04\n      add\n      tag_53\n      swap1\n      tag_54\n      jump\t// in\n    tag_53:\n      mload(0x40)\n      dup1\n      swap2\n      sub\n      swap1\n      revert\n    tag_52:\n        /* \"@openzeppelin/contracts@4.5.0/security/ReentrancyGuard.sol\":1744:1745  2 */\n      0x02\n        /* \"@openzeppelin/contracts@4.5.0/security/ReentrancyGuard.sol\":2455:2462  _status */\n      0x00\n        /* \"@openzeppelin/contracts@4.5.0/security/ReentrancyGuard.sol\":2455:2473  _status = _ENTERED */\n      dup2\n      swap1\n      sstore\n      pop\n        /* \"contracts/Marketplace.sol\":1662:1678  uint _totalPrice */\n      0x00\n        /* \"contracts/Marketplace.sol\":1681:1703  getTotalPrice(_itemId) */\n      tag_56\n        /* \"contracts/Marketplace.sol\":1695:1702  _itemId */\n      dup3\n        /* \"contracts/Marketplace.sol\":1681:1694  getTotalPrice */\n      tag_34\n        /* \"contracts/Marketplace.sol\":1681:1703  getTotalPrice(_itemId) */\n      jump\t// in\n    tag_56:\n        /* \"contracts/Marketplace.sol\":1662:1703  uint _totalPrice = getTotalPrice(_itemId) */\n      swap1\n      pop\n        /* \"contracts/Marketplace.sol\":1714:1731  Item storage item */\n      0x00\n        /* \"contracts/Marketplace.sol\":1734:1739  items */\n      0x02\n        /* \"contracts/Marketplace.sol\":1734:1748  items[_itemId] */\n      0x00\n        /* \"contracts/Marketplace.sol\":1740:1747  _itemId */\n      dup5\n        /* \"contracts/Marketplace.sol\":1734:1748  items[_itemId] */\n      dup2\n      mstore\n      0x20\n      add\n      swap1\n      dup2\n      mstore\n      0x20\n      add\n      0x00\n      keccak256\n        /* \"contracts/Marketplace.sol\":1714:1748  Item storage item = items[_itemId] */\n      swap1\n      pop\n        /* \"contracts/Marketplace.sol\":1777:1778  0 */\n      0x00\n        /* \"contracts/Marketplace.sol\":1767:1774  _itemId */\n      dup4\n        /* \"contracts/Marketplace.sol\":1767:1778  _itemId > 0 */\n      gt\n        /* \"contracts/Marketplace.sol\":1767:1802  _itemId > 0 && _itemId <= itemCount */\n      dup1\n      iszero\n      tag_57\n      jumpi\n      pop\n        /* \"contracts/Marketplace.sol\":1793:1802  itemCount */\n      sload(0x01)\n        /* \"contracts/Marketplace.sol\":1782:1789  _itemId */\n      dup4\n        /* \"contracts/Marketplace.sol\":1782:1802  _itemId <= itemCount */\n      gt\n      iszero\n        /* \"contracts/Marketplace.sol\":1767:1802  _itemId > 0 && _itemId <= itemCount */\n    tag_57:\n        /* \"contracts/Marketplace.sol\":1759:1829  require(_itemId > 0 && _itemId <= itemCount, \"The item doesn't exist\") */\n      tag_58\n      jumpi\n      mload(0x40)\n      0x08c379a000000000000000000000000000000000000000000000000000000000\n      dup2\n      mstore\n      0x04\n      add\n      tag_59\n      swap1\n      tag_60\n      jump\t// in\n    tag_59:\n      mload(0x40)\n      dup1\n      swap2\n      sub\n      swap1\n      revert\n    tag_58:\n        /* \"contracts/Marketplace.sol\":1861:1872  _totalPrice */\n      dup2\n        /* \"contracts/Marketplace.sol\":1848:1857  msg.value */\n      callvalue\n        /* \"contracts/Marketplace.sol\":1848:1872  msg.value >= _totalPrice */\n      lt\n      iszero\n        /* \"contracts/Marketplace.sol\":1840:1906  require(msg.value >= _totalPrice, \"Youd don't have enough founds\") */\n      tag_61\n      jumpi\n      mload(0x40)\n      0x08c379a000000000000000000000000000000000000000000000000000000000\n      dup2\n      mstore\n      0x04\n      add\n      tag_62\n      swap1\n      tag_63\n      jump\t// in\n    tag_62:\n      mload(0x40)\n      dup1\n      swap2\n      sub\n      swap1\n      revert\n    tag_61:\n        /* \"@openzeppelin/contracts@4.5.0/security/ReentrancyGuard.sol\":2484:2485  _ */\n      pop\n      pop\n        /* \"@openzeppelin/contracts@4.5.0/security/ReentrancyGuard.sol\":1701:1702  1 */\n      0x01\n        /* \"@openzeppelin/contracts@4.5.0/security/ReentrancyGuard.sol\":2628:2635  _status */\n      0x00\n        /* \"@openzeppelin/contracts@4.5.0/security/ReentrancyGuard.sol\":2628:2650  _status = _NOT_ENTERED */\n      dup2\n      swap1\n      sstore\n      pop\n        /* \"contracts/Marketplace.sol\":1585:1916  function purchaseItem(uint _itemId) external payable nonReentrant {\r... */\n      pop\n      jump\t// out\n        /* \"contracts/Marketplace.sol\":1029:1577  function makeItem(IERC721 _nft, uint _tokenId, uint _price) external nonReentrant {\r... */\n    tag_43:\n        /* \"@openzeppelin/contracts@4.5.0/security/ReentrancyGuard.sol\":1744:1745  2 */\n      0x02\n        /* \"@openzeppelin/contracts@4.5.0/security/ReentrancyGuard.sol\":2325:2332  _status */\n      sload(0x00)\n        /* \"@openzeppelin/contracts@4.5.0/security/ReentrancyGuard.sol\":2325:2344  _status != _ENTERED */\n      eq\n      iszero\n        /* \"@openzeppelin/contracts@4.5.0/security/ReentrancyGuard.sol\":2317:2380  require(_status != _ENTERED, \"ReentrancyGuard: reentrant call\") */\n      tag_65\n      jumpi\n      mload(0x40)\n      0x08c379a000000000000000000000000000000000000000000000000000000000\n      dup2\n      mstore\n      0x04\n      add\n      tag_66\n      swap1\n      tag_54\n      jump\t// in\n    tag_66:\n      mload(0x40)\n      dup1\n      swap2\n      sub\n      swap1\n      revert\n    tag_65:\n        /* \"@openzeppelin/contracts@4.5.0/security/ReentrancyGuard.sol\":1744:1745  2 */\n      0x02\n        /* \"@openzeppelin/contracts@4.5.0/security/ReentrancyGuard.sol\":2455:2462  _status */\n      0x00\n        /* \"@openzeppelin/contracts@4.5.0/security/ReentrancyGuard.sol\":2455:2473  _status = _ENTERED */\n      dup2\n      swap1\n      sstore\n      pop\n        /* \"contracts/Marketplace.sol\":1139:1140  0 */\n      0x00\n        /* \"contracts/Marketplace.sol\":1130:1136  _price */\n      dup2\n        /* \"contracts/Marketplace.sol\":1130:1140  _price > 0 */\n      gt\n        /* \"contracts/Marketplace.sol\":1122:1141  require(_price > 0) */\n      tag_68\n      jumpi\n      0x00\n      dup1\n      revert\n    tag_68:\n        /* \"contracts/Marketplace.sol\":1152:1161  itemCount */\n      0x01\n      0x00\n        /* \"contracts/Marketplace.sol\":1152:1163  itemCount++ */\n      dup2\n      sload\n      dup1\n      swap3\n      swap2\n      swap1\n      tag_69\n      swap1\n      tag_70\n      jump\t// in\n    tag_69:\n      swap2\n      swap1\n      pop\n      sstore\n      pop\n        /* \"contracts/Marketplace.sol\":1174:1178  _nft */\n      dup3\n        /* \"contracts/Marketplace.sol\":1174:1191  _nft.transferFrom */\n      0xffffffffffffffffffffffffffffffffffffffff\n      and\n      0x23b872dd\n        /* \"contracts/Marketplace.sol\":1192:1202  msg.sender */\n      caller\n        /* \"contracts/Marketplace.sol\":1212:1216  this */\n      address\n        /* \"contracts/Marketplace.sol\":1219:1227  _tokenId */\n      dup6\n        /* \"contracts/Marketplace.sol\":1174:1228  _nft.transferFrom(msg.sender, address(this), _tokenId) */\n      mload(0x40)\n      dup5\n      0xffffffff\n      and\n      0xe0\n      shl\n      dup2\n      mstore\n      0x04\n      add\n      tag_71\n      swap4\n      swap3\n      swap2\n      swap1\n      tag_72\n      jump\t// in\n    tag_71:\n      0x00\n      mload(0x40)\n      dup1\n      dup4\n      sub\n      dup2\n      0x00\n      dup8\n      dup1\n      extcodesize\n      iszero\n      dup1\n      iszero\n      tag_73\n      jumpi\n      0x00\n      dup1\n      revert\n    tag_73:\n      pop\n      gas\n      call\n      iszero\n      dup1\n      iszero\n      tag_75\n      jumpi\n      returndatasize\n      0x00\n      dup1\n      returndatacopy\n      revert(0x00, returndatasize)\n    tag_75:\n      pop\n      pop\n      pop\n      pop\n        /* \"contracts/Marketplace.sol\":1258:1414  Item(\r... */\n      mload(0x40)\n      dup1\n      0xc0\n      add\n      0x40\n      mstore\n      dup1\n        /* \"contracts/Marketplace.sol\":1277:1286  itemCount */\n      sload(0x01)\n        /* \"contracts/Marketplace.sol\":1258:1414  Item(\r... */\n      dup2\n      mstore\n      0x20\n      add\n        /* \"contracts/Marketplace.sol\":1301:1305  _nft */\n      dup5\n        /* \"contracts/Marketplace.sol\":1258:1414  Item(\r... */\n      0xffffffffffffffffffffffffffffffffffffffff\n      and\n      dup2\n      mstore\n      0x20\n      add\n        /* \"contracts/Marketplace.sol\":1320:1328  _tokenId */\n      dup4\n        /* \"contracts/Marketplace.sol\":1258:1414  Item(\r... */\n      dup2\n      mstore\n      0x20\n      add\n        /* \"contracts/Marketplace.sol\":1343:1349  _price */\n      dup3\n        /* \"contracts/Marketplace.sol\":1258:1414  Item(\r... */\n      dup2\n      mstore\n      0x20\n      add\n        /* \"contracts/Marketplace.sol\":1372:1382  msg.sender */\n      caller\n        /* \"contracts/Marketplace.sol\":1258:1414  Item(\r... */\n      0xffffffffffffffffffffffffffffffffffffffff\n      and\n      dup2\n      mstore\n      0x20\n      add\n        /* \"contracts/Marketplace.sol\":1398:1403  false */\n      0x00\n        /* \"contracts/Marketplace.sol\":1258:1414  Item(\r... */\n      iszero\n      iszero\n      dup2\n      mstore\n      pop\n        /* \"contracts/Marketplace.sol\":1239:1244  items */\n      0x02\n        /* \"contracts/Marketplace.sol\":1239:1255  items[itemCount] */\n      0x00\n        /* \"contracts/Marketplace.sol\":1245:1254  itemCount */\n      sload(0x01)\n        /* \"contracts/Marketplace.sol\":1239:1255  items[itemCount] */\n      dup2\n      mstore\n      0x20\n      add\n      swap1\n      dup2\n      mstore\n      0x20\n      add\n      0x00\n      keccak256\n        /* \"contracts/Marketplace.sol\":1239:1414  items[itemCount] = Item(\r... */\n      0x00\n      dup3\n      add\n      mload\n      dup2\n      0x00\n      add\n      sstore\n      0x20\n      dup3\n      add\n      mload\n      dup2\n      0x01\n      add\n      exp(0x0100, 0x00)\n      dup2\n      sload\n      dup2\n      0xffffffffffffffffffffffffffffffffffffffff\n      mul\n      not\n      and\n      swap1\n      dup4\n      0xffffffffffffffffffffffffffffffffffffffff\n      and\n      mul\n      or\n      swap1\n      sstore\n      pop\n      0x40\n      dup3\n      add\n      mload\n      dup2\n      0x02\n      add\n      sstore\n      0x60\n      dup3\n      add\n      mload\n      dup2\n      0x03\n      add\n      sstore\n      0x80\n      dup3\n      add\n      mload\n      dup2\n      0x04\n      add\n      exp(0x0100, 0x00)\n      dup2\n      sload\n      dup2\n      0xffffffffffffffffffffffffffffffffffffffff\n      mul\n      not\n      and\n      swap1\n      dup4\n      0xffffffffffffffffffffffffffffffffffffffff\n      and\n      mul\n      or\n      swap1\n      sstore\n      pop\n      0xa0\n      dup3\n      add\n      mload\n      dup2\n      0x04\n      add\n      exp(0x0100, 0x14)\n      dup2\n      sload\n      dup2\n      0xff\n      mul\n      not\n      and\n      swap1\n      dup4\n      iszero\n      iszero\n      mul\n      or\n      swap1\n      sstore\n      pop\n      swap1\n      pop\n      pop\n        /* \"contracts/Marketplace.sol\":1548:1558  msg.sender */\n      caller\n        /* \"contracts/Marketplace.sol\":1430:1569  Offered(\r... */\n      0xffffffffffffffffffffffffffffffffffffffff\n      and\n        /* \"contracts/Marketplace.sol\":1484:1488  _nft */\n      dup4\n        /* \"contracts/Marketplace.sol\":1430:1569  Offered(\r... */\n      0xffffffffffffffffffffffffffffffffffffffff\n      and\n      0x655a0cf9c8db81512be9a76dc1c5ae5380b8816ce6ad659cd61b715e2999d59a\n        /* \"contracts/Marketplace.sol\":1452:1461  itemCount */\n      sload(0x01)\n        /* \"contracts/Marketplace.sol\":1504:1512  _tokenId */\n      dup6\n        /* \"contracts/Marketplace.sol\":1527:1533  _price */\n      dup6\n        /* \"contracts/Marketplace.sol\":1430:1569  Offered(\r... */\n      mload(0x40)\n      tag_76\n      swap4\n      swap3\n      swap2\n      swap1\n      tag_77\n      jump\t// in\n    tag_76:\n      mload(0x40)\n      dup1\n      swap2\n      sub\n      swap1\n      log3\n        /* \"@openzeppelin/contracts@4.5.0/security/ReentrancyGuard.sol\":1701:1702  1 */\n      0x01\n        /* \"@openzeppelin/contracts@4.5.0/security/ReentrancyGuard.sol\":2628:2635  _status */\n      0x00\n        /* \"@openzeppelin/contracts@4.5.0/security/ReentrancyGuard.sol\":2628:2650  _status = _NOT_ENTERED */\n      dup2\n      swap1\n      sstore\n      pop\n        /* \"contracts/Marketplace.sol\":1029:1577  function makeItem(IERC721 _nft, uint _tokenId, uint _price) external nonReentrant {\r... */\n      pop\n      pop\n      pop\n      jump\t// out\n        /* \"#utility.yul\":7:176   */\n    tag_79:\n        /* \"#utility.yul\":68:73   */\n      0x00\n        /* \"#utility.yul\":106:112   */\n      dup2\n        /* \"#utility.yul\":93:113   */\n      calldataload\n        /* \"#utility.yul\":84:113   */\n      swap1\n      pop\n        /* \"#utility.yul\":122:170   */\n      tag_81\n        /* \"#utility.yul\":164:169   */\n      dup2\n        /* \"#utility.yul\":122:170   */\n      tag_82\n      jump\t// in\n    tag_81:\n        /* \"#utility.yul\":74:176   */\n      swap3\n      swap2\n      pop\n      pop\n      jump\t// out\n        /* \"#utility.yul\":182:321   */\n    tag_83:\n        /* \"#utility.yul\":228:233   */\n      0x00\n        /* \"#utility.yul\":266:272   */\n      dup2\n        /* \"#utility.yul\":253:273   */\n      calldataload\n        /* \"#utility.yul\":244:273   */\n      swap1\n      pop\n        /* \"#utility.yul\":282:315   */\n      tag_85\n        /* \"#utility.yul\":309:314   */\n      dup2\n        /* \"#utility.yul\":282:315   */\n      tag_86\n      jump\t// in\n    tag_85:\n        /* \"#utility.yul\":234:321   */\n      swap3\n      swap2\n      pop\n      pop\n      jump\t// out\n        /* \"#utility.yul\":327:909   */\n    tag_42:\n        /* \"#utility.yul\":419:425   */\n      0x00\n        /* \"#utility.yul\":427:433   */\n      dup1\n        /* \"#utility.yul\":435:441   */\n      0x00\n        /* \"#utility.yul\":484:486   */\n      0x60\n        /* \"#utility.yul\":472:481   */\n      dup5\n        /* \"#utility.yul\":463:470   */\n      dup7\n        /* \"#utility.yul\":459:482   */\n      sub\n        /* \"#utility.yul\":455:487   */\n      slt\n        /* \"#utility.yul\":452:454   */\n      iszero\n      tag_88\n      jumpi\n        /* \"#utility.yul\":500:501   */\n      0x00\n        /* \"#utility.yul\":497:498   */\n      dup1\n        /* \"#utility.yul\":490:502   */\n      revert\n        /* \"#utility.yul\":452:454   */\n    tag_88:\n        /* \"#utility.yul\":543:544   */\n      0x00\n        /* \"#utility.yul\":568:636   */\n      tag_89\n        /* \"#utility.yul\":628:635   */\n      dup7\n        /* \"#utility.yul\":619:625   */\n      dup3\n        /* \"#utility.yul\":608:617   */\n      dup8\n        /* \"#utility.yul\":604:626   */\n      add\n        /* \"#utility.yul\":568:636   */\n      tag_79\n      jump\t// in\n    tag_89:\n        /* \"#utility.yul\":558:636   */\n      swap4\n      pop\n        /* \"#utility.yul\":514:646   */\n      pop\n        /* \"#utility.yul\":685:687   */\n      0x20\n        /* \"#utility.yul\":711:764   */\n      tag_90\n        /* \"#utility.yul\":756:763   */\n      dup7\n        /* \"#utility.yul\":747:753   */\n      dup3\n        /* \"#utility.yul\":736:745   */\n      dup8\n        /* \"#utility.yul\":732:754   */\n      add\n        /* \"#utility.yul\":711:764   */\n      tag_83\n      jump\t// in\n    tag_90:\n        /* \"#utility.yul\":701:764   */\n      swap3\n      pop\n        /* \"#utility.yul\":656:774   */\n      pop\n        /* \"#utility.yul\":813:815   */\n      0x40\n        /* \"#utility.yul\":839:892   */\n      tag_91\n        /* \"#utility.yul\":884:891   */\n      dup7\n        /* \"#utility.yul\":875:881   */\n      dup3\n        /* \"#utility.yul\":864:873   */\n      dup8\n        /* \"#utility.yul\":860:882   */\n      add\n        /* \"#utility.yul\":839:892   */\n      tag_83\n      jump\t// in\n    tag_91:\n        /* \"#utility.yul\":829:892   */\n      swap2\n      pop\n        /* \"#utility.yul\":784:902   */\n      pop\n        /* \"#utility.yul\":442:909   */\n      swap3\n      pop\n      swap3\n      pop\n      swap3\n      jump\t// out\n        /* \"#utility.yul\":915:1177   */\n    tag_27:\n        /* \"#utility.yul\":974:980   */\n      0x00\n        /* \"#utility.yul\":1023:1025   */\n      0x20\n        /* \"#utility.yul\":1011:1020   */\n      dup3\n        /* \"#utility.yul\":1002:1009   */\n      dup5\n        /* \"#utility.yul\":998:1021   */\n      sub\n        /* \"#utility.yul\":994:1026   */\n      slt\n        /* \"#utility.yul\":991:993   */\n      iszero\n      tag_93\n      jumpi\n        /* \"#utility.yul\":1039:1040   */\n      0x00\n        /* \"#utility.yul\":1036:1037   */\n      dup1\n        /* \"#utility.yul\":1029:1041   */\n      revert\n        /* \"#utility.yul\":991:993   */\n    tag_93:\n        /* \"#utility.yul\":1082:1083   */\n      0x00\n        /* \"#utility.yul\":1107:1160   */\n      tag_94\n        /* \"#utility.yul\":1152:1159   */\n      dup5\n        /* \"#utility.yul\":1143:1149   */\n      dup3\n        /* \"#utility.yul\":1132:1141   */\n      dup6\n        /* \"#utility.yul\":1128:1150   */\n      add\n        /* \"#utility.yul\":1107:1160   */\n      tag_83\n      jump\t// in\n    tag_94:\n        /* \"#utility.yul\":1097:1160   */\n      swap2\n      pop\n        /* \"#utility.yul\":1053:1170   */\n      pop\n        /* \"#utility.yul\":981:1177   */\n      swap3\n      swap2\n      pop\n      pop\n      jump\t// out\n        /* \"#utility.yul\":1183:1325   */\n    tag_95:\n        /* \"#utility.yul\":1286:1318   */\n      tag_97\n        /* \"#utility.yul\":1312:1317   */\n      dup2\n        /* \"#utility.yul\":1286:1318   */\n      tag_98\n      jump\t// in\n    tag_97:\n        /* \"#utility.yul\":1281:1284   */\n      dup3\n        /* \"#utility.yul\":1274:1319   */\n      mstore\n        /* \"#utility.yul\":1264:1325   */\n      pop\n      pop\n      jump\t// out\n        /* \"#utility.yul\":1331:1449   */\n    tag_99:\n        /* \"#utility.yul\":1418:1442   */\n      tag_101\n        /* \"#utility.yul\":1436:1441   */\n      dup2\n        /* \"#utility.yul\":1418:1442   */\n      tag_102\n      jump\t// in\n    tag_101:\n        /* \"#utility.yul\":1413:1416   */\n      dup3\n        /* \"#utility.yul\":1406:1443   */\n      mstore\n        /* \"#utility.yul\":1396:1449   */\n      pop\n      pop\n      jump\t// out\n        /* \"#utility.yul\":1455:1564   */\n    tag_103:\n        /* \"#utility.yul\":1536:1557   */\n      tag_105\n        /* \"#utility.yul\":1551:1556   */\n      dup2\n        /* \"#utility.yul\":1536:1557   */\n      tag_106\n      jump\t// in\n    tag_105:\n        /* \"#utility.yul\":1531:1534   */\n      dup3\n        /* \"#utility.yul\":1524:1558   */\n      mstore\n        /* \"#utility.yul\":1514:1564   */\n      pop\n      pop\n      jump\t// out\n        /* \"#utility.yul\":1570:1731   */\n    tag_107:\n        /* \"#utility.yul\":1672:1724   */\n      tag_109\n        /* \"#utility.yul\":1718:1723   */\n      dup2\n        /* \"#utility.yul\":1672:1724   */\n      tag_110\n      jump\t// in\n    tag_109:\n        /* \"#utility.yul\":1667:1670   */\n      dup3\n        /* \"#utility.yul\":1660:1725   */\n      mstore\n        /* \"#utility.yul\":1650:1731   */\n      pop\n      pop\n      jump\t// out\n        /* \"#utility.yul\":1737:2103   */\n    tag_111:\n        /* \"#utility.yul\":1879:1882   */\n      0x00\n        /* \"#utility.yul\":1900:1967   */\n      tag_113\n        /* \"#utility.yul\":1964:1966   */\n      0x1d\n        /* \"#utility.yul\":1959:1962   */\n      dup4\n        /* \"#utility.yul\":1900:1967   */\n      tag_114\n      jump\t// in\n    tag_113:\n        /* \"#utility.yul\":1893:1967   */\n      swap2\n      pop\n        /* \"#utility.yul\":1976:2069   */\n      tag_115\n        /* \"#utility.yul\":2065:2068   */\n      dup3\n        /* \"#utility.yul\":1976:2069   */\n      tag_116\n      jump\t// in\n    tag_115:\n        /* \"#utility.yul\":2094:2096   */\n      0x20\n        /* \"#utility.yul\":2089:2092   */\n      dup3\n        /* \"#utility.yul\":2085:2097   */\n      add\n        /* \"#utility.yul\":2078:2097   */\n      swap1\n      pop\n        /* \"#utility.yul\":1883:2103   */\n      swap2\n      swap1\n      pop\n      jump\t// out\n        /* \"#utility.yul\":2109:2475   */\n    tag_117:\n        /* \"#utility.yul\":2251:2254   */\n      0x00\n        /* \"#utility.yul\":2272:2339   */\n      tag_119\n        /* \"#utility.yul\":2336:2338   */\n      0x1f\n        /* \"#utility.yul\":2331:2334   */\n      dup4\n        /* \"#utility.yul\":2272:2339   */\n      tag_114\n      jump\t// in\n    tag_119:\n        /* \"#utility.yul\":2265:2339   */\n      swap2\n      pop\n        /* \"#utility.yul\":2348:2441   */\n      tag_120\n        /* \"#utility.yul\":2437:2440   */\n      dup3\n        /* \"#utility.yul\":2348:2441   */\n      tag_121\n      jump\t// in\n    tag_120:\n        /* \"#utility.yul\":2466:2468   */\n      0x20\n        /* \"#utility.yul\":2461:2464   */\n      dup3\n        /* \"#utility.yul\":2457:2469   */\n      add\n        /* \"#utility.yul\":2450:2469   */\n      swap1\n      pop\n        /* \"#utility.yul\":2255:2475   */\n      swap2\n      swap1\n      pop\n      jump\t// out\n        /* \"#utility.yul\":2481:2847   */\n    tag_122:\n        /* \"#utility.yul\":2623:2626   */\n      0x00\n        /* \"#utility.yul\":2644:2711   */\n      tag_124\n        /* \"#utility.yul\":2708:2710   */\n      0x16\n        /* \"#utility.yul\":2703:2706   */\n      dup4\n        /* \"#utility.yul\":2644:2711   */\n      tag_114\n      jump\t// in\n    tag_124:\n        /* \"#utility.yul\":2637:2711   */\n      swap2\n      pop\n        /* \"#utility.yul\":2720:2813   */\n      tag_125\n        /* \"#utility.yul\":2809:2812   */\n      dup3\n        /* \"#utility.yul\":2720:2813   */\n      tag_126\n      jump\t// in\n    tag_125:\n        /* \"#utility.yul\":2838:2840   */\n      0x20\n        /* \"#utility.yul\":2833:2836   */\n      dup3\n        /* \"#utility.yul\":2829:2841   */\n      add\n        /* \"#utility.yul\":2822:2841   */\n      swap1\n      pop\n        /* \"#utility.yul\":2627:2847   */\n      swap2\n      swap1\n      pop\n      jump\t// out\n        /* \"#utility.yul\":2853:2971   */\n    tag_127:\n        /* \"#utility.yul\":2940:2964   */\n      tag_129\n        /* \"#utility.yul\":2958:2963   */\n      dup2\n        /* \"#utility.yul\":2940:2964   */\n      tag_130\n      jump\t// in\n    tag_129:\n        /* \"#utility.yul\":2935:2938   */\n      dup3\n        /* \"#utility.yul\":2928:2965   */\n      mstore\n        /* \"#utility.yul\":2918:2971   */\n      pop\n      pop\n      jump\t// out\n        /* \"#utility.yul\":2977:3231   */\n    tag_14:\n        /* \"#utility.yul\":3086:3090   */\n      0x00\n        /* \"#utility.yul\":3124:3126   */\n      0x20\n        /* \"#utility.yul\":3113:3122   */\n      dup3\n        /* \"#utility.yul\":3109:3127   */\n      add\n        /* \"#utility.yul\":3101:3127   */\n      swap1\n      pop\n        /* \"#utility.yul\":3137:3224   */\n      tag_132\n        /* \"#utility.yul\":3221:3222   */\n      0x00\n        /* \"#utility.yul\":3210:3219   */\n      dup4\n        /* \"#utility.yul\":3206:3223   */\n      add\n        /* \"#utility.yul\":3197:3203   */\n      dup5\n        /* \"#utility.yul\":3137:3224   */\n      tag_95\n      jump\t// in\n    tag_132:\n        /* \"#utility.yul\":3091:3231   */\n      swap3\n      swap2\n      pop\n      pop\n      jump\t// out\n        /* \"#utility.yul\":3237:3679   */\n    tag_72:\n        /* \"#utility.yul\":3386:3390   */\n      0x00\n        /* \"#utility.yul\":3424:3426   */\n      0x60\n        /* \"#utility.yul\":3413:3422   */\n      dup3\n        /* \"#utility.yul\":3409:3427   */\n      add\n        /* \"#utility.yul\":3401:3427   */\n      swap1\n      pop\n        /* \"#utility.yul\":3437:3508   */\n      tag_134\n        /* \"#utility.yul\":3505:3506   */\n      0x00\n        /* \"#utility.yul\":3494:3503   */\n      dup4\n        /* \"#utility.yul\":3490:3507   */\n      add\n        /* \"#utility.yul\":3481:3487   */\n      dup7\n        /* \"#utility.yul\":3437:3508   */\n      tag_99\n      jump\t// in\n    tag_134:\n        /* \"#utility.yul\":3518:3590   */\n      tag_135\n        /* \"#utility.yul\":3586:3588   */\n      0x20\n        /* \"#utility.yul\":3575:3584   */\n      dup4\n        /* \"#utility.yul\":3571:3589   */\n      add\n        /* \"#utility.yul\":3562:3568   */\n      dup6\n        /* \"#utility.yul\":3518:3590   */\n      tag_99\n      jump\t// in\n    tag_135:\n        /* \"#utility.yul\":3600:3672   */\n      tag_136\n        /* \"#utility.yul\":3668:3670   */\n      0x40\n        /* \"#utility.yul\":3657:3666   */\n      dup4\n        /* \"#utility.yul\":3653:3671   */\n      add\n        /* \"#utility.yul\":3644:3650   */\n      dup5\n        /* \"#utility.yul\":3600:3672   */\n      tag_127\n      jump\t// in\n    tag_136:\n        /* \"#utility.yul\":3391:3679   */\n      swap5\n      swap4\n      pop\n      pop\n      pop\n      pop\n      jump\t// out\n        /* \"#utility.yul\":3685:4104   */\n    tag_63:\n        /* \"#utility.yul\":3851:3855   */\n      0x00\n        /* \"#utility.yul\":3889:3891   */\n      0x20\n        /* \"#utility.yul\":3878:3887   */\n      dup3\n        /* \"#utility.yul\":3874:3892   */\n      add\n        /* \"#utility.yul\":3866:3892   */\n      swap1\n      pop\n        /* \"#utility.yul\":3938:3947   */\n      dup2\n        /* \"#utility.yul\":3932:3936   */\n      dup2\n        /* \"#utility.yul\":3928:3948   */\n      sub\n        /* \"#utility.yul\":3924:3925   */\n      0x00\n        /* \"#utility.yul\":3913:3922   */\n      dup4\n        /* \"#utility.yul\":3909:3926   */\n      add\n        /* \"#utility.yul\":3902:3949   */\n      mstore\n        /* \"#utility.yul\":3966:4097   */\n      tag_138\n        /* \"#utility.yul\":4092:4096   */\n      dup2\n        /* \"#utility.yul\":3966:4097   */\n      tag_111\n      jump\t// in\n    tag_138:\n        /* \"#utility.yul\":3958:4097   */\n      swap1\n      pop\n        /* \"#utility.yul\":3856:4104   */\n      swap2\n      swap1\n      pop\n      jump\t// out\n        /* \"#utility.yul\":4110:4529   */\n    tag_54:\n        /* \"#utility.yul\":4276:4280   */\n      0x00\n        /* \"#utility.yul\":4314:4316   */\n      0x20\n        /* \"#utility.yul\":4303:4312   */\n      dup3\n        /* \"#utility.yul\":4299:4317   */\n      add\n        /* \"#utility.yul\":4291:4317   */\n      swap1\n      pop\n        /* \"#utility.yul\":4363:4372   */\n      dup2\n        /* \"#utility.yul\":4357:4361   */\n      dup2\n        /* \"#utility.yul\":4353:4373   */\n      sub\n        /* \"#utility.yul\":4349:4350   */\n      0x00\n        /* \"#utility.yul\":4338:4347   */\n      dup4\n        /* \"#utility.yul\":4334:4351   */\n      add\n        /* \"#utility.yul\":4327:4374   */\n      mstore\n        /* \"#utility.yul\":4391:4522   */\n      tag_140\n        /* \"#utility.yul\":4517:4521   */\n      dup2\n        /* \"#utility.yul\":4391:4522   */\n      tag_117\n      jump\t// in\n    tag_140:\n        /* \"#utility.yul\":4383:4522   */\n      swap1\n      pop\n        /* \"#utility.yul\":4281:4529   */\n      swap2\n      swap1\n      pop\n      jump\t// out\n        /* \"#utility.yul\":4535:4954   */\n    tag_60:\n        /* \"#utility.yul\":4701:4705   */\n      0x00\n        /* \"#utility.yul\":4739:4741   */\n      0x20\n        /* \"#utility.yul\":4728:4737   */\n      dup3\n        /* \"#utility.yul\":4724:4742   */\n      add\n        /* \"#utility.yul\":4716:4742   */\n      swap1\n      pop\n        /* \"#utility.yul\":4788:4797   */\n      dup2\n        /* \"#utility.yul\":4782:4786   */\n      dup2\n        /* \"#utility.yul\":4778:4798   */\n      sub\n        /* \"#utility.yul\":4774:4775   */\n      0x00\n        /* \"#utility.yul\":4763:4772   */\n      dup4\n        /* \"#utility.yul\":4759:4776   */\n      add\n        /* \"#utility.yul\":4752:4799   */\n      mstore\n        /* \"#utility.yul\":4816:4947   */\n      tag_142\n        /* \"#utility.yul\":4942:4946   */\n      dup2\n        /* \"#utility.yul\":4816:4947   */\n      tag_122\n      jump\t// in\n    tag_142:\n        /* \"#utility.yul\":4808:4947   */\n      swap1\n      pop\n        /* \"#utility.yul\":4706:4954   */\n      swap2\n      swap1\n      pop\n      jump\t// out\n        /* \"#utility.yul\":4960:5182   */\n    tag_19:\n        /* \"#utility.yul\":5053:5057   */\n      0x00\n        /* \"#utility.yul\":5091:5093   */\n      0x20\n        /* \"#utility.yul\":5080:5089   */\n      dup3\n        /* \"#utility.yul\":5076:5094   */\n      add\n        /* \"#utility.yul\":5068:5094   */\n      swap1\n      pop\n        /* \"#utility.yul\":5104:5175   */\n      tag_144\n        /* \"#utility.yul\":5172:5173   */\n      0x00\n        /* \"#utility.yul\":5161:5170   */\n      dup4\n        /* \"#utility.yul\":5157:5174   */\n      add\n        /* \"#utility.yul\":5148:5154   */\n      dup5\n        /* \"#utility.yul\":5104:5175   */\n      tag_127\n      jump\t// in\n    tag_144:\n        /* \"#utility.yul\":5058:5182   */\n      swap3\n      swap2\n      pop\n      pop\n      jump\t// out\n        /* \"#utility.yul\":5188:6013   */\n    tag_30:\n        /* \"#utility.yul\":5446:5450   */\n      0x00\n        /* \"#utility.yul\":5484:5487   */\n      0xc0\n        /* \"#utility.yul\":5473:5482   */\n      dup3\n        /* \"#utility.yul\":5469:5488   */\n      add\n        /* \"#utility.yul\":5461:5488   */\n      swap1\n      pop\n        /* \"#utility.yul\":5498:5569   */\n      tag_146\n        /* \"#utility.yul\":5566:5567   */\n      0x00\n        /* \"#utility.yul\":5555:5564   */\n      dup4\n        /* \"#utility.yul\":5551:5568   */\n      add\n        /* \"#utility.yul\":5542:5548   */\n      dup10\n        /* \"#utility.yul\":5498:5569   */\n      tag_127\n      jump\t// in\n    tag_146:\n        /* \"#utility.yul\":5579:5666   */\n      tag_147\n        /* \"#utility.yul\":5662:5664   */\n      0x20\n        /* \"#utility.yul\":5651:5660   */\n      dup4\n        /* \"#utility.yul\":5647:5665   */\n      add\n        /* \"#utility.yul\":5638:5644   */\n      dup9\n        /* \"#utility.yul\":5579:5666   */\n      tag_107\n      jump\t// in\n    tag_147:\n        /* \"#utility.yul\":5676:5748   */\n      tag_148\n        /* \"#utility.yul\":5744:5746   */\n      0x40\n        /* \"#utility.yul\":5733:5742   */\n      dup4\n        /* \"#utility.yul\":5729:5747   */\n      add\n        /* \"#utility.yul\":5720:5726   */\n      dup8\n        /* \"#utility.yul\":5676:5748   */\n      tag_127\n      jump\t// in\n    tag_148:\n        /* \"#utility.yul\":5758:5830   */\n      tag_149\n        /* \"#utility.yul\":5826:5828   */\n      0x60\n        /* \"#utility.yul\":5815:5824   */\n      dup4\n        /* \"#utility.yul\":5811:5829   */\n      add\n        /* \"#utility.yul\":5802:5808   */\n      dup7\n        /* \"#utility.yul\":5758:5830   */\n      tag_127\n      jump\t// in\n    tag_149:\n        /* \"#utility.yul\":5840:5929   */\n      tag_150\n        /* \"#utility.yul\":5924:5927   */\n      0x80\n        /* \"#utility.yul\":5913:5922   */\n      dup4\n        /* \"#utility.yul\":5909:5928   */\n      add\n        /* \"#utility.yul\":5900:5906   */\n      dup6\n        /* \"#utility.yul\":5840:5929   */\n      tag_95\n      jump\t// in\n    tag_150:\n        /* \"#utility.yul\":5939:6006   */\n      tag_151\n        /* \"#utility.yul\":6001:6004   */\n      0xa0\n        /* \"#utility.yul\":5990:5999   */\n      dup4\n        /* \"#utility.yul\":5986:6005   */\n      add\n        /* \"#utility.yul\":5977:5983   */\n      dup5\n        /* \"#utility.yul\":5939:6006   */\n      tag_103\n      jump\t// in\n    tag_151:\n        /* \"#utility.yul\":5451:6013   */\n      swap8\n      swap7\n      pop\n      pop\n      pop\n      pop\n      pop\n      pop\n      pop\n      jump\t// out\n        /* \"#utility.yul\":6019:6461   */\n    tag_77:\n        /* \"#utility.yul\":6168:6172   */\n      0x00\n        /* \"#utility.yul\":6206:6208   */\n      0x60\n        /* \"#utility.yul\":6195:6204   */\n      dup3\n        /* \"#utility.yul\":6191:6209   */\n      add\n        /* \"#utility.yul\":6183:6209   */\n      swap1\n      pop\n        /* \"#utility.yul\":6219:6290   */\n      tag_153\n        /* \"#utility.yul\":6287:6288   */\n      0x00\n        /* \"#utility.yul\":6276:6285   */\n      dup4\n        /* \"#utility.yul\":6272:6289   */\n      add\n        /* \"#utility.yul\":6263:6269   */\n      dup7\n        /* \"#utility.yul\":6219:6290   */\n      tag_127\n      jump\t// in\n    tag_153:\n        /* \"#utility.yul\":6300:6372   */\n      tag_154\n        /* \"#utility.yul\":6368:6370   */\n      0x20\n        /* \"#utility.yul\":6357:6366   */\n      dup4\n        /* \"#utility.yul\":6353:6371   */\n      add\n        /* \"#utility.yul\":6344:6350   */\n      dup6\n        /* \"#utility.yul\":6300:6372   */\n      tag_127\n      jump\t// in\n    tag_154:\n        /* \"#utility.yul\":6382:6454   */\n      tag_155\n        /* \"#utility.yul\":6450:6452   */\n      0x40\n        /* \"#utility.yul\":6439:6448   */\n      dup4\n        /* \"#utility.yul\":6435:6453   */\n      add\n        /* \"#utility.yul\":6426:6432   */\n      dup5\n        /* \"#utility.yul\":6382:6454   */\n      tag_127\n      jump\t// in\n    tag_155:\n        /* \"#utility.yul\":6173:6461   */\n      swap5\n      swap4\n      pop\n      pop\n      pop\n      pop\n      jump\t// out\n        /* \"#utility.yul\":6467:6636   */\n    tag_114:\n        /* \"#utility.yul\":6551:6562   */\n      0x00\n        /* \"#utility.yul\":6585:6591   */\n      dup3\n        /* \"#utility.yul\":6580:6583   */\n      dup3\n        /* \"#utility.yul\":6573:6592   */\n      mstore\n        /* \"#utility.yul\":6625:6629   */\n      0x20\n        /* \"#utility.yul\":6620:6623   */\n      dup3\n        /* \"#utility.yul\":6616:6630   */\n      add\n        /* \"#utility.yul\":6601:6630   */\n      swap1\n      pop\n        /* \"#utility.yul\":6563:6636   */\n      swap3\n      swap2\n      pop\n      pop\n      jump\t// out\n        /* \"#utility.yul\":6642:6947   */\n    tag_46:\n        /* \"#utility.yul\":6682:6685   */\n      0x00\n        /* \"#utility.yul\":6701:6721   */\n      tag_158\n        /* \"#utility.yul\":6719:6720   */\n      dup3\n        /* \"#utility.yul\":6701:6721   */\n      tag_130\n      jump\t// in\n    tag_158:\n        /* \"#utility.yul\":6696:6721   */\n      swap2\n      pop\n        /* \"#utility.yul\":6735:6755   */\n      tag_159\n        /* \"#utility.yul\":6753:6754   */\n      dup4\n        /* \"#utility.yul\":6735:6755   */\n      tag_130\n      jump\t// in\n    tag_159:\n        /* \"#utility.yul\":6730:6755   */\n      swap3\n      pop\n        /* \"#utility.yul\":6889:6890   */\n      dup3\n        /* \"#utility.yul\":6821:6887   */\n      0xffffffffffffffffffffffffffffffffffffffffffffffffffffffffffffffff\n        /* \"#utility.yul\":6817:6891   */\n      sub\n        /* \"#utility.yul\":6814:6815   */\n      dup3\n        /* \"#utility.yul\":6811:6892   */\n      gt\n        /* \"#utility.yul\":6808:6810   */\n      iszero\n      tag_160\n      jumpi\n        /* \"#utility.yul\":6895:6913   */\n      tag_161\n      tag_162\n      jump\t// in\n    tag_161:\n        /* \"#utility.yul\":6808:6810   */\n    tag_160:\n        /* \"#utility.yul\":6939:6940   */\n      dup3\n        /* \"#utility.yul\":6936:6937   */\n      dup3\n        /* \"#utility.yul\":6932:6941   */\n      add\n        /* \"#utility.yul\":6925:6941   */\n      swap1\n      pop\n        /* \"#utility.yul\":6686:6947   */\n      swap3\n      swap2\n      pop\n      pop\n      jump\t// out\n        /* \"#utility.yul\":6953:7138   */\n    tag_50:\n        /* \"#utility.yul\":6993:6994   */\n      0x00\n        /* \"#utility.yul\":7010:7030   */\n      tag_164\n        /* \"#utility.yul\":7028:7029   */\n      dup3\n        /* \"#utility.yul\":7010:7030   */\n      tag_130\n      jump\t// in\n    tag_164:\n        /* \"#utility.yul\":7005:7030   */\n      swap2\n      pop\n        /* \"#utility.yul\":7044:7064   */\n      tag_165\n        /* \"#utility.yul\":7062:7063   */\n      dup4\n        /* \"#utility.yul\":7044:7064   */\n      tag_130\n      jump\t// in\n    tag_165:\n        /* \"#utility.yul\":7039:7064   */\n      swap3\n      pop\n        /* \"#utility.yul\":7083:7084   */\n      dup3\n        /* \"#utility.yul\":7073:7075   */\n      tag_166\n      jumpi\n        /* \"#utility.yul\":7088:7106   */\n      tag_167\n      tag_168\n      jump\t// in\n    tag_167:\n        /* \"#utility.yul\":7073:7075   */\n    tag_166:\n        /* \"#utility.yul\":7130:7131   */\n      dup3\n        /* \"#utility.yul\":7127:7128   */\n      dup3\n        /* \"#utility.yul\":7123:7132   */\n      div\n        /* \"#utility.yul\":7118:7132   */\n      swap1\n      pop\n        /* \"#utility.yul\":6995:7138   */\n      swap3\n      swap2\n      pop\n      pop\n      jump\t// out\n        /* \"#utility.yul\":7144:7492   */\n    tag_48:\n        /* \"#utility.yul\":7184:7191   */\n      0x00\n        /* \"#utility.yul\":7207:7227   */\n      tag_170\n        /* \"#utility.yul\":7225:7226   */\n      dup3\n        /* \"#utility.yul\":7207:7227   */\n      tag_130\n      jump\t// in\n    tag_170:\n        /* \"#utility.yul\":7202:7227   */\n      swap2\n      pop\n        /* \"#utility.yul\":7241:7261   */\n      tag_171\n        /* \"#utility.yul\":7259:7260   */\n      dup4\n        /* \"#utility.yul\":7241:7261   */\n      tag_130\n      jump\t// in\n    tag_171:\n        /* \"#utility.yul\":7236:7261   */\n      swap3\n      pop\n        /* \"#utility.yul\":7429:7430   */\n      dup2\n        /* \"#utility.yul\":7361:7427   */\n      0xffffffffffffffffffffffffffffffffffffffffffffffffffffffffffffffff\n        /* \"#utility.yul\":7357:7431   */\n      div\n        /* \"#utility.yul\":7354:7355   */\n      dup4\n        /* \"#utility.yul\":7351:7432   */\n      gt\n        /* \"#utility.yul\":7346:7347   */\n      dup3\n        /* \"#utility.yul\":7339:7348   */\n      iszero\n        /* \"#utility.yul\":7332:7349   */\n      iszero\n        /* \"#utility.yul\":7328:7433   */\n      and\n        /* \"#utility.yul\":7325:7327   */\n      iszero\n      tag_172\n      jumpi\n        /* \"#utility.yul\":7436:7454   */\n      tag_173\n      tag_162\n      jump\t// in\n    tag_173:\n        /* \"#utility.yul\":7325:7327   */\n    tag_172:\n        /* \"#utility.yul\":7484:7485   */\n      dup3\n        /* \"#utility.yul\":7481:7482   */\n      dup3\n        /* \"#utility.yul\":7477:7486   */\n      mul\n        /* \"#utility.yul\":7466:7486   */\n      swap1\n      pop\n        /* \"#utility.yul\":7192:7492   */\n      swap3\n      swap2\n      pop\n      pop\n      jump\t// out\n        /* \"#utility.yul\":7498:7594   */\n    tag_102:\n        /* \"#utility.yul\":7535:7542   */\n      0x00\n        /* \"#utility.yul\":7564:7588   */\n      tag_175\n        /* \"#utility.yul\":7582:7587   */\n      dup3\n        /* \"#utility.yul\":7564:7588   */\n      tag_176\n      jump\t// in\n    tag_175:\n        /* \"#utility.yul\":7553:7588   */\n      swap1\n      pop\n        /* \"#utility.yul\":7543:7594   */\n      swap2\n      swap1\n      pop\n      jump\t// out\n        /* \"#utility.yul\":7600:7704   */\n    tag_98:\n        /* \"#utility.yul\":7645:7652   */\n      0x00\n        /* \"#utility.yul\":7674:7698   */\n      tag_178\n        /* \"#utility.yul\":7692:7697   */\n      dup3\n        /* \"#utility.yul\":7674:7698   */\n      tag_176\n      jump\t// in\n    tag_178:\n        /* \"#utility.yul\":7663:7698   */\n      swap1\n      pop\n        /* \"#utility.yul\":7653:7704   */\n      swap2\n      swap1\n      pop\n      jump\t// out\n        /* \"#utility.yul\":7710:7800   */\n    tag_106:\n        /* \"#utility.yul\":7744:7751   */\n      0x00\n        /* \"#utility.yul\":7787:7792   */\n      dup2\n        /* \"#utility.yul\":7780:7793   */\n      iszero\n        /* \"#utility.yul\":7773:7794   */\n      iszero\n        /* \"#utility.yul\":7762:7794   */\n      swap1\n      pop\n        /* \"#utility.yul\":7752:7800   */\n      swap2\n      swap1\n      pop\n      jump\t// out\n        /* \"#utility.yul\":7806:7917   */\n    tag_180:\n        /* \"#utility.yul\":7858:7865   */\n      0x00\n        /* \"#utility.yul\":7887:7911   */\n      tag_182\n        /* \"#utility.yul\":7905:7910   */\n      dup3\n        /* \"#utility.yul\":7887:7911   */\n      tag_102\n      jump\t// in\n    tag_182:\n        /* \"#utility.yul\":7876:7911   */\n      swap1\n      pop\n        /* \"#utility.yul\":7866:7917   */\n      swap2\n      swap1\n      pop\n      jump\t// out\n        /* \"#utility.yul\":7923:8049   */\n    tag_176:\n        /* \"#utility.yul\":7960:7967   */\n      0x00\n        /* \"#utility.yul\":8000:8042   */\n      0xffffffffffffffffffffffffffffffffffffffff\n        /* \"#utility.yul\":7993:7998   */\n      dup3\n        /* \"#utility.yul\":7989:8043   */\n      and\n        /* \"#utility.yul\":7978:8043   */\n      swap1\n      pop\n        /* \"#utility.yul\":7968:8049   */\n      swap2\n      swap1\n      pop\n      jump\t// out\n        /* \"#utility.yul\":8055:8132   */\n    tag_130:\n        /* \"#utility.yul\":8092:8099   */\n      0x00\n        /* \"#utility.yul\":8121:8126   */\n      dup2\n        /* \"#utility.yul\":8110:8126   */\n      swap1\n      pop\n        /* \"#utility.yul\":8100:8132   */\n      swap2\n      swap1\n      pop\n      jump\t// out\n        /* \"#utility.yul\":8138:8294   */\n    tag_110:\n        /* \"#utility.yul\":8203:8212   */\n      0x00\n        /* \"#utility.yul\":8236:8288   */\n      tag_186\n        /* \"#utility.yul\":8282:8287   */\n      dup3\n        /* \"#utility.yul\":8236:8288   */\n      tag_187\n      jump\t// in\n    tag_186:\n        /* \"#utility.yul\":8223:8288   */\n      swap1\n      pop\n        /* \"#utility.yul\":8213:8294   */\n      swap2\n      swap1\n      pop\n      jump\t// out\n        /* \"#utility.yul\":8300:8428   */\n    tag_187:\n        /* \"#utility.yul\":8365:8374   */\n      0x00\n        /* \"#utility.yul\":8398:8422   */\n      tag_189\n        /* \"#utility.yul\":8416:8421   */\n      dup3\n        /* \"#utility.yul\":8398:8422   */\n      tag_176\n      jump\t// in\n    tag_189:\n        /* \"#utility.yul\":8385:8422   */\n      swap1\n      pop\n        /* \"#utility.yul\":8375:8428   */\n      swap2\n      swap1\n      pop\n      jump\t// out\n        /* \"#utility.yul\":8434:8667   */\n    tag_70:\n        /* \"#utility.yul\":8473:8476   */\n      0x00\n        /* \"#utility.yul\":8496:8520   */\n      tag_191\n        /* \"#utility.yul\":8514:8519   */\n      dup3\n        /* \"#utility.yul\":8496:8520   */\n      tag_130\n      jump\t// in\n    tag_191:\n        /* \"#utility.yul\":8487:8520   */\n      swap2\n      pop\n        /* \"#utility.yul\":8542:8608   */\n      0xffffffffffffffffffffffffffffffffffffffffffffffffffffffffffffffff\n        /* \"#utility.yul\":8535:8540   */\n      dup3\n        /* \"#utility.yul\":8532:8609   */\n      eq\n        /* \"#utility.yul\":8529:8531   */\n      iszero\n      tag_192\n      jumpi\n        /* \"#utility.yul\":8612:8630   */\n      tag_193\n      tag_162\n      jump\t// in\n    tag_193:\n        /* \"#utility.yul\":8529:8531   */\n    tag_192:\n        /* \"#utility.yul\":8659:8660   */\n      0x01\n        /* \"#utility.yul\":8652:8657   */\n      dup3\n        /* \"#utility.yul\":8648:8661   */\n      add\n        /* \"#utility.yul\":8641:8661   */\n      swap1\n      pop\n        /* \"#utility.yul\":8477:8667   */\n      swap2\n      swap1\n      pop\n      jump\t// out\n        /* \"#utility.yul\":8673:8853   */\n    tag_162:\n        /* \"#utility.yul\":8721:8798   */\n      0x4e487b7100000000000000000000000000000000000000000000000000000000\n        /* \"#utility.yul\":8718:8719   */\n      0x00\n        /* \"#utility.yul\":8711:8799   */\n      mstore\n        /* \"#utility.yul\":8818:8822   */\n      0x11\n        /* \"#utility.yul\":8815:8816   */\n      0x04\n        /* \"#utility.yul\":8808:8823   */\n      mstore\n        /* \"#utility.yul\":8842:8846   */\n      0x24\n        /* \"#utility.yul\":8839:8840   */\n      0x00\n        /* \"#utility.yul\":8832:8847   */\n      revert\n        /* \"#utility.yul\":8859:9039   */\n    tag_168:\n        /* \"#utility.yul\":8907:8984   */\n      0x4e487b7100000000000000000000000000000000000000000000000000000000\n        /* \"#utility.yul\":8904:8905   */\n      0x00\n        /* \"#utility.yul\":8897:8985   */\n      mstore\n        /* \"#utility.yul\":9004:9008   */\n      0x12\n        /* \"#utility.yul\":9001:9002   */\n      0x04\n        /* \"#utility.yul\":8994:9009   */\n      mstore\n        /* \"#utility.yul\":9028:9032   */\n      0x24\n        /* \"#utility.yul\":9025:9026   */\n      0x00\n        /* \"#utility.yul\":9018:9033   */\n      revert\n        /* \"#utility.yul\":9045:9224   */\n    tag_116:\n        /* \"#utility.yul\":9185:9216   */\n      0x596f756420646f6e2774206861766520656e6f75676820666f756e6473000000\n        /* \"#utility.yul\":9181:9182   */\n      0x00\n        /* \"#utility.yul\":9173:9179   */\n      dup3\n        /* \"#utility.yul\":9169:9183   */\n      add\n        /* \"#utility.yul\":9162:9217   */\n      mstore\n        /* \"#utility.yul\":9151:9224   */\n      pop\n      jump\t// out\n        /* \"#utility.yul\":9230:9411   */\n    tag_121:\n        /* \"#utility.yul\":9370:9403   */\n      0x5265656e7472616e637947756172643a207265656e7472616e742063616c6c00\n        /* \"#utility.yul\":9366:9367   */\n      0x00\n        /* \"#utility.yul\":9358:9364   */\n      dup3\n        /* \"#utility.yul\":9354:9368   */\n      add\n        /* \"#utility.yul\":9347:9404   */\n      mstore\n        /* \"#utility.yul\":9336:9411   */\n      pop\n      jump\t// out\n        /* \"#utility.yul\":9417:9589   */\n    tag_126:\n        /* \"#utility.yul\":9557:9581   */\n      0x546865206974656d20646f65736e277420657869737400000000000000000000\n        /* \"#utility.yul\":9553:9554   */\n      0x00\n        /* \"#utility.yul\":9545:9551   */\n      dup3\n        /* \"#utility.yul\":9541:9555   */\n      add\n        /* \"#utility.yul\":9534:9582   */\n      mstore\n        /* \"#utility.yul\":9523:9589   */\n      pop\n      jump\t// out\n        /* \"#utility.yul\":9595:9747   */\n    tag_82:\n        /* \"#utility.yul\":9683:9722   */\n      tag_200\n        /* \"#utility.yul\":9716:9721   */\n      dup2\n        /* \"#utility.yul\":9683:9722   */\n      tag_180\n      jump\t// in\n    tag_200:\n        /* \"#utility.yul\":9676:9681   */\n      dup2\n        /* \"#utility.yul\":9673:9723   */\n      eq\n        /* \"#utility.yul\":9663:9665   */\n      tag_201\n      jumpi\n        /* \"#utility.yul\":9737:9738   */\n      0x00\n        /* \"#utility.yul\":9734:9735   */\n      dup1\n        /* \"#utility.yul\":9727:9739   */\n      revert\n        /* \"#utility.yul\":9663:9665   */\n    tag_201:\n        /* \"#utility.yul\":9653:9747   */\n      pop\n      jump\t// out\n        /* \"#utility.yul\":9753:9875   */\n    tag_86:\n        /* \"#utility.yul\":9826:9850   */\n      tag_203\n        /* \"#utility.yul\":9844:9849   */\n      dup2\n        /* \"#utility.yul\":9826:9850   */\n      tag_130\n      jump\t// in\n    tag_203:\n        /* \"#utility.yul\":9819:9824   */\n      dup2\n        /* \"#utility.yul\":9816:9851   */\n      eq\n        /* \"#utility.yul\":9806:9808   */\n      tag_204\n      jumpi\n        /* \"#utility.yul\":9865:9866   */\n      0x00\n        /* \"#utility.yul\":9862:9863   */\n      dup1\n        /* \"#utility.yul\":9855:9867   */\n      revert\n        /* \"#utility.yul\":9806:9808   */\n    tag_204:\n        /* \"#utility.yul\":9796:9875   */\n      pop\n      jump\t// out\n\n    auxdata: 0xa2646970667358221220d30ca2eb39b452d9f8dfe113f29162f5ae39b2642a357c6dc558f31b35fa295064736f6c63430008040033\n}\n",
				"bytecode": {
					"linkReferences": {},
					"object": "60c060405234801561001057600080fd5b50604051610d73380380610d7383398181016040528101906100329190610094565b60016000819055503373ffffffffffffffffffffffffffffffffffffffff1660808173ffffffffffffffffffffffffffffffffffffffff1660601b815250508060a08181525050506100de565b60008151905061008e816100c7565b92915050565b6000602082840312156100a657600080fd5b60006100b48482850161007f565b91505092915050565b6000819050919050565b6100d0816100bd565b81146100db57600080fd5b50565b60805160601c60a051610c6661010d600039600081816101e60152610297015260006101bc0152610c666000f3fe6080604052600436106100705760003560e01c8063bfb231d21161004e578063bfb231d2146100f6578063ca7dd37514610138578063d38ea5bf14610175578063fa00afc71461019157610070565b806365e17c9d146100755780636bfb0d01146100a05780637fd6f15c146100cb575b600080fd5b34801561008157600080fd5b5061008a6101ba565b60405161009791906107f9565b60405180910390f35b3480156100ac57600080fd5b506100b56101de565b6040516100c291906108ab565b60405180910390f35b3480156100d757600080fd5b506100e06101e4565b6040516100ed91906108ab565b60405180910390f35b34801561010257600080fd5b5061011d6004803603810190610118919061071c565b610208565b60405161012f969594939291906108c6565b60405180910390f35b34801561014457600080fd5b5061015f600480360381019061015a919061071c565b610291565b60405161016c91906108ab565b60405180910390f35b61018f600480360381019061018a919061071c565b6102f4565b005b34801561019d57600080fd5b506101b860048036038101906101b391906106cd565b610407565b005b7f000000000000000000000000000000000000000000000000000000000000000081565b60015481565b7f000000000000000000000000000000000000000000000000000000000000000081565b60026020528060005260406000206000915090508060000154908060010160009054906101000a900473ffffffffffffffffffffffffffffffffffffffff16908060020154908060030154908060040160009054906101000a900473ffffffffffffffffffffffffffffffffffffffff16908060040160149054906101000a900460ff16905086565b600060647f000000000000000000000000000000000000000000000000000000000000000060646102c2919061096f565b60026000858152602001908152602001600020600301546102e391906109f6565b6102ed91906109c5565b9050919050565b6002600054141561033a576040517f08c379a00000000000000000000000000000000000000000000000000000000081526004016103319061086b565b60405180910390fd5b6002600081905550600061034d82610291565b9050600060026000848152602001908152602001600020905060008311801561037857506001548311155b6103b7576040517f08c379a00000000000000000000000000000000000000000000000000000000081526004016103ae9061088b565b60405180910390fd5b813410156103fa576040517f08c379a00000000000000000000000000000000000000000000000000000000081526004016103f19061084b565b60405180910390fd5b5050600160008190555050565b6002600054141561044d576040517f08c379a00000000000000000000000000000000000000000000000000000000081526004016104449061086b565b60405180910390fd5b60026000819055506000811161046257600080fd5b6001600081548092919061047590610ae0565b91905055508273ffffffffffffffffffffffffffffffffffffffff166323b872dd3330856040518463ffffffff1660e01b81526004016104b793929190610814565b600060405180830381600087803b1580156104d157600080fd5b505af11580156104e5573d6000803e3d6000fd5b505050506040518060c0016040528060015481526020018473ffffffffffffffffffffffffffffffffffffffff1681526020018381526020018281526020013373ffffffffffffffffffffffffffffffffffffffff168152602001600015158152506002600060015481526020019081526020016000206000820151816000015560208201518160010160006101000a81548173ffffffffffffffffffffffffffffffffffffffff021916908373ffffffffffffffffffffffffffffffffffffffff160217905550604082015181600201556060820151816003015560808201518160040160006101000a81548173ffffffffffffffffffffffffffffffffffffffff021916908373ffffffffffffffffffffffffffffffffffffffff16021790555060a08201518160040160146101000a81548160ff0219169083151502179055509050503373ffffffffffffffffffffffffffffffffffffffff168373ffffffffffffffffffffffffffffffffffffffff167f655a0cf9c8db81512be9a76dc1c5ae5380b8816ce6ad659cd61b715e2999d59a600154858560405161068e93929190610927565b60405180910390a36001600081905550505050565b6000813590506106b281610c02565b92915050565b6000813590506106c781610c19565b92915050565b6000806000606084860312156106e257600080fd5b60006106f0868287016106a3565b9350506020610701868287016106b8565b9250506040610712868287016106b8565b9150509250925092565b60006020828403121561072e57600080fd5b600061073c848285016106b8565b91505092915050565b61074e81610a62565b82525050565b61075d81610a50565b82525050565b61076c81610a74565b82525050565b61077b81610abc565b82525050565b600061078e601d8361095e565b915061079982610b87565b602082019050919050565b60006107b1601f8361095e565b91506107bc82610bb0565b602082019050919050565b60006107d460168361095e565b91506107df82610bd9565b602082019050919050565b6107f381610ab2565b82525050565b600060208201905061080e6000830184610745565b92915050565b60006060820190506108296000830186610754565b6108366020830185610754565b61084360408301846107ea565b949350505050565b6000602082019050818103600083015261086481610781565b9050919050565b60006020820190508181036000830152610884816107a4565b9050919050565b600060208201905081810360008301526108a4816107c7565b9050919050565b60006020820190506108c060008301846107ea565b92915050565b600060c0820190506108db60008301896107ea565b6108e86020830188610772565b6108f560408301876107ea565b61090260608301866107ea565b61090f6080830185610745565b61091c60a0830184610763565b979650505050505050565b600060608201905061093c60008301866107ea565b61094960208301856107ea565b61095660408301846107ea565b949350505050565b600082825260208201905092915050565b600061097a82610ab2565b915061098583610ab2565b9250827fffffffffffffffffffffffffffffffffffffffffffffffffffffffffffffffff038211156109ba576109b9610b29565b5b828201905092915050565b60006109d082610ab2565b91506109db83610ab2565b9250826109eb576109ea610b58565b5b828204905092915050565b6000610a0182610ab2565b9150610a0c83610ab2565b9250817fffffffffffffffffffffffffffffffffffffffffffffffffffffffffffffffff0483118215151615610a4557610a44610b29565b5b828202905092915050565b6000610a5b82610a92565b9050919050565b6000610a6d82610a92565b9050919050565b60008115159050919050565b6000610a8b82610a50565b9050919050565b600073ffffffffffffffffffffffffffffffffffffffff82169050919050565b6000819050919050565b6000610ac782610ace565b9050919050565b6000610ad982610a92565b9050919050565b6000610aeb82610ab2565b91507fffffffffffffffffffffffffffffffffffffffffffffffffffffffffffffffff821415610b1e57610b1d610b29565b5b600182019050919050565b7f4e487b7100000000000000000000000000000000000000000000000000000000600052601160045260246000fd5b7f4e487b7100000000000000000000000000000000000000000000000000000000600052601260045260246000fd5b7f596f756420646f6e2774206861766520656e6f75676820666f756e6473000000600082015250565b7f5265656e7472616e637947756172643a207265656e7472616e742063616c6c00600082015250565b7f546865206974656d20646f65736e277420657869737400000000000000000000600082015250565b610c0b81610a80565b8114610c1657600080fd5b50565b610c2281610ab2565b8114610c2d57600080fd5b5056fea2646970667358221220d30ca2eb39b452d9f8dfe113f29162f5ae39b2642a357c6dc558f31b35fa295064736f6c63430008040033",
					"opcodes": "PUSH1 0xC0 PUSH1 0x40 MSTORE CALLVALUE DUP1 ISZERO PUSH2 0x10 JUMPI PUSH1 0x0 DUP1 REVERT JUMPDEST POP PUSH1 0x40 MLOAD PUSH2 0xD73 CODESIZE SUB DUP1 PUSH2 0xD73 DUP4 CODECOPY DUP2 DUP2 ADD PUSH1 0x40 MSTORE DUP2 ADD SWAP1 PUSH2 0x32 SWAP2 SWAP1 PUSH2 0x94 JUMP JUMPDEST PUSH1 0x1 PUSH1 0x0 DUP2 SWAP1 SSTORE POP CALLER PUSH20 0xFFFFFFFFFFFFFFFFFFFFFFFFFFFFFFFFFFFFFFFF AND PUSH1 0x80 DUP2 PUSH20 0xFFFFFFFFFFFFFFFFFFFFFFFFFFFFFFFFFFFFFFFF AND PUSH1 0x60 SHL DUP2 MSTORE POP POP DUP1 PUSH1 0xA0 DUP2 DUP2 MSTORE POP POP POP PUSH2 0xDE JUMP JUMPDEST PUSH1 0x0 DUP2 MLOAD SWAP1 POP PUSH2 0x8E DUP2 PUSH2 0xC7 JUMP JUMPDEST SWAP3 SWAP2 POP POP JUMP JUMPDEST PUSH1 0x0 PUSH1 0x20 DUP3 DUP5 SUB SLT ISZERO PUSH2 0xA6 JUMPI PUSH1 0x0 DUP1 REVERT JUMPDEST PUSH1 0x0 PUSH2 0xB4 DUP5 DUP3 DUP6 ADD PUSH2 0x7F JUMP JUMPDEST SWAP2 POP POP SWAP3 SWAP2 POP POP JUMP JUMPDEST PUSH1 0x0 DUP2 SWAP1 POP SWAP2 SWAP1 POP JUMP JUMPDEST PUSH2 0xD0 DUP2 PUSH2 0xBD JUMP JUMPDEST DUP2 EQ PUSH2 0xDB JUMPI PUSH1 0x0 DUP1 REVERT JUMPDEST POP JUMP JUMPDEST PUSH1 0x80 MLOAD PUSH1 0x60 SHR PUSH1 0xA0 MLOAD PUSH2 0xC66 PUSH2 0x10D PUSH1 0x0 CODECOPY PUSH1 0x0 DUP2 DUP2 PUSH2 0x1E6 ADD MSTORE PUSH2 0x297 ADD MSTORE PUSH1 0x0 PUSH2 0x1BC ADD MSTORE PUSH2 0xC66 PUSH1 0x0 RETURN INVALID PUSH1 0x80 PUSH1 0x40 MSTORE PUSH1 0x4 CALLDATASIZE LT PUSH2 0x70 JUMPI PUSH1 0x0 CALLDATALOAD PUSH1 0xE0 SHR DUP1 PUSH4 0xBFB231D2 GT PUSH2 0x4E JUMPI DUP1 PUSH4 0xBFB231D2 EQ PUSH2 0xF6 JUMPI DUP1 PUSH4 0xCA7DD375 EQ PUSH2 0x138 JUMPI DUP1 PUSH4 0xD38EA5BF EQ PUSH2 0x175 JUMPI DUP1 PUSH4 0xFA00AFC7 EQ PUSH2 0x191 JUMPI PUSH2 0x70 JUMP JUMPDEST DUP1 PUSH4 0x65E17C9D EQ PUSH2 0x75 JUMPI DUP1 PUSH4 0x6BFB0D01 EQ PUSH2 0xA0 JUMPI DUP1 PUSH4 0x7FD6F15C EQ PUSH2 0xCB JUMPI JUMPDEST PUSH1 0x0 DUP1 REVERT JUMPDEST CALLVALUE DUP1 ISZERO PUSH2 0x81 JUMPI PUSH1 0x0 DUP1 REVERT JUMPDEST POP PUSH2 0x8A PUSH2 0x1BA JUMP JUMPDEST PUSH1 0x40 MLOAD PUSH2 0x97 SWAP2 SWAP1 PUSH2 0x7F9 JUMP JUMPDEST PUSH1 0x40 MLOAD DUP1 SWAP2 SUB SWAP1 RETURN JUMPDEST CALLVALUE DUP1 ISZERO PUSH2 0xAC JUMPI PUSH1 0x0 DUP1 REVERT JUMPDEST POP PUSH2 0xB5 PUSH2 0x1DE JUMP JUMPDEST PUSH1 0x40 MLOAD PUSH2 0xC2 SWAP2 SWAP1 PUSH2 0x8AB JUMP JUMPDEST PUSH1 0x40 MLOAD DUP1 SWAP2 SUB SWAP1 RETURN JUMPDEST CALLVALUE DUP1 ISZERO PUSH2 0xD7 JUMPI PUSH1 0x0 DUP1 REVERT JUMPDEST POP PUSH2 0xE0 PUSH2 0x1E4 JUMP JUMPDEST PUSH1 0x40 MLOAD PUSH2 0xED SWAP2 SWAP1 PUSH2 0x8AB JUMP JUMPDEST PUSH1 0x40 MLOAD DUP1 SWAP2 SUB SWAP1 RETURN JUMPDEST CALLVALUE DUP1 ISZERO PUSH2 0x102 JUMPI PUSH1 0x0 DUP1 REVERT JUMPDEST POP PUSH2 0x11D PUSH1 0x4 DUP1 CALLDATASIZE SUB DUP2 ADD SWAP1 PUSH2 0x118 SWAP2 SWAP1 PUSH2 0x71C JUMP JUMPDEST PUSH2 0x208 JUMP JUMPDEST PUSH1 0x40 MLOAD PUSH2 0x12F SWAP7 SWAP6 SWAP5 SWAP4 SWAP3 SWAP2 SWAP1 PUSH2 0x8C6 JUMP JUMPDEST PUSH1 0x40 MLOAD DUP1 SWAP2 SUB SWAP1 RETURN JUMPDEST CALLVALUE DUP1 ISZERO PUSH2 0x144 JUMPI PUSH1 0x0 DUP1 REVERT JUMPDEST POP PUSH2 0x15F PUSH1 0x4 DUP1 CALLDATASIZE SUB DUP2 ADD SWAP1 PUSH2 0x15A SWAP2 SWAP1 PUSH2 0x71C JUMP JUMPDEST PUSH2 0x291 JUMP JUMPDEST PUSH1 0x40 MLOAD PUSH2 0x16C SWAP2 SWAP1 PUSH2 0x8AB JUMP JUMPDEST PUSH1 0x40 MLOAD DUP1 SWAP2 SUB SWAP1 RETURN JUMPDEST PUSH2 0x18F PUSH1 0x4 DUP1 CALLDATASIZE SUB DUP2 ADD SWAP1 PUSH2 0x18A SWAP2 SWAP1 PUSH2 0x71C JUMP JUMPDEST PUSH2 0x2F4 JUMP JUMPDEST STOP JUMPDEST CALLVALUE DUP1 ISZERO PUSH2 0x19D JUMPI PUSH1 0x0 DUP1 REVERT JUMPDEST POP PUSH2 0x1B8 PUSH1 0x4 DUP1 CALLDATASIZE SUB DUP2 ADD SWAP1 PUSH2 0x1B3 SWAP2 SWAP1 PUSH2 0x6CD JUMP JUMPDEST PUSH2 0x407 JUMP JUMPDEST STOP JUMPDEST PUSH32 0x0 DUP2 JUMP JUMPDEST PUSH1 0x1 SLOAD DUP2 JUMP JUMPDEST PUSH32 0x0 DUP2 JUMP JUMPDEST PUSH1 0x2 PUSH1 0x20 MSTORE DUP1 PUSH1 0x0 MSTORE PUSH1 0x40 PUSH1 0x0 KECCAK256 PUSH1 0x0 SWAP2 POP SWAP1 POP DUP1 PUSH1 0x0 ADD SLOAD SWAP1 DUP1 PUSH1 0x1 ADD PUSH1 0x0 SWAP1 SLOAD SWAP1 PUSH2 0x100 EXP SWAP1 DIV PUSH20 0xFFFFFFFFFFFFFFFFFFFFFFFFFFFFFFFFFFFFFFFF AND SWAP1 DUP1 PUSH1 0x2 ADD SLOAD SWAP1 DUP1 PUSH1 0x3 ADD SLOAD SWAP1 DUP1 PUSH1 0x4 ADD PUSH1 0x0 SWAP1 SLOAD SWAP1 PUSH2 0x100 EXP SWAP1 DIV PUSH20 0xFFFFFFFFFFFFFFFFFFFFFFFFFFFFFFFFFFFFFFFF AND SWAP1 DUP1 PUSH1 0x4 ADD PUSH1 0x14 SWAP1 SLOAD SWAP1 PUSH2 0x100 EXP SWAP1 DIV PUSH1 0xFF AND SWAP1 POP DUP7 JUMP JUMPDEST PUSH1 0x0 PUSH1 0x64 PUSH32 0x0 PUSH1 0x64 PUSH2 0x2C2 SWAP2 SWAP1 PUSH2 0x96F JUMP JUMPDEST PUSH1 0x2 PUSH1 0x0 DUP6 DUP2 MSTORE PUSH1 0x20 ADD SWAP1 DUP2 MSTORE PUSH1 0x20 ADD PUSH1 0x0 KECCAK256 PUSH1 0x3 ADD SLOAD PUSH2 0x2E3 SWAP2 SWAP1 PUSH2 0x9F6 JUMP JUMPDEST PUSH2 0x2ED SWAP2 SWAP1 PUSH2 0x9C5 JUMP JUMPDEST SWAP1 POP SWAP2 SWAP1 POP JUMP JUMPDEST PUSH1 0x2 PUSH1 0x0 SLOAD EQ ISZERO PUSH2 0x33A JUMPI PUSH1 0x40 MLOAD PUSH32 0x8C379A000000000000000000000000000000000000000000000000000000000 DUP2 MSTORE PUSH1 0x4 ADD PUSH2 0x331 SWAP1 PUSH2 0x86B JUMP JUMPDEST PUSH1 0x40 MLOAD DUP1 SWAP2 SUB SWAP1 REVERT JUMPDEST PUSH1 0x2 PUSH1 0x0 DUP2 SWAP1 SSTORE POP PUSH1 0x0 PUSH2 0x34D DUP3 PUSH2 0x291 JUMP JUMPDEST SWAP1 POP PUSH1 0x0 PUSH1 0x2 PUSH1 0x0 DUP5 DUP2 MSTORE PUSH1 0x20 ADD SWAP1 DUP2 MSTORE PUSH1 0x20 ADD PUSH1 0x0 KECCAK256 SWAP1 POP PUSH1 0x0 DUP4 GT DUP1 ISZERO PUSH2 0x378 JUMPI POP PUSH1 0x1 SLOAD DUP4 GT ISZERO JUMPDEST PUSH2 0x3B7 JUMPI PUSH1 0x40 MLOAD PUSH32 0x8C379A000000000000000000000000000000000000000000000000000000000 DUP2 MSTORE PUSH1 0x4 ADD PUSH2 0x3AE SWAP1 PUSH2 0x88B JUMP JUMPDEST PUSH1 0x40 MLOAD DUP1 SWAP2 SUB SWAP1 REVERT JUMPDEST DUP2 CALLVALUE LT ISZERO PUSH2 0x3FA JUMPI PUSH1 0x40 MLOAD PUSH32 0x8C379A000000000000000000000000000000000000000000000000000000000 DUP2 MSTORE PUSH1 0x4 ADD PUSH2 0x3F1 SWAP1 PUSH2 0x84B JUMP JUMPDEST PUSH1 0x40 MLOAD DUP1 SWAP2 SUB SWAP1 REVERT JUMPDEST POP POP PUSH1 0x1 PUSH1 0x0 DUP2 SWAP1 SSTORE POP POP JUMP JUMPDEST PUSH1 0x2 PUSH1 0x0 SLOAD EQ ISZERO PUSH2 0x44D JUMPI PUSH1 0x40 MLOAD PUSH32 0x8C379A000000000000000000000000000000000000000000000000000000000 DUP2 MSTORE PUSH1 0x4 ADD PUSH2 0x444 SWAP1 PUSH2 0x86B JUMP JUMPDEST PUSH1 0x40 MLOAD DUP1 SWAP2 SUB SWAP1 REVERT JUMPDEST PUSH1 0x2 PUSH1 0x0 DUP2 SWAP1 SSTORE POP PUSH1 0x0 DUP2 GT PUSH2 0x462 JUMPI PUSH1 0x0 DUP1 REVERT JUMPDEST PUSH1 0x1 PUSH1 0x0 DUP2 SLOAD DUP1 SWAP3 SWAP2 SWAP1 PUSH2 0x475 SWAP1 PUSH2 0xAE0 JUMP JUMPDEST SWAP2 SWAP1 POP SSTORE POP DUP3 PUSH20 0xFFFFFFFFFFFFFFFFFFFFFFFFFFFFFFFFFFFFFFFF AND PUSH4 0x23B872DD CALLER ADDRESS DUP6 PUSH1 0x40 MLOAD DUP5 PUSH4 0xFFFFFFFF AND PUSH1 0xE0 SHL DUP2 MSTORE PUSH1 0x4 ADD PUSH2 0x4B7 SWAP4 SWAP3 SWAP2 SWAP1 PUSH2 0x814 JUMP JUMPDEST PUSH1 0x0 PUSH1 0x40 MLOAD DUP1 DUP4 SUB DUP2 PUSH1 0x0 DUP8 DUP1 EXTCODESIZE ISZERO DUP1 ISZERO PUSH2 0x4D1 JUMPI PUSH1 0x0 DUP1 REVERT JUMPDEST POP GAS CALL ISZERO DUP1 ISZERO PUSH2 0x4E5 JUMPI RETURNDATASIZE PUSH1 0x0 DUP1 RETURNDATACOPY RETURNDATASIZE PUSH1 0x0 REVERT JUMPDEST POP POP POP POP PUSH1 0x40 MLOAD DUP1 PUSH1 0xC0 ADD PUSH1 0x40 MSTORE DUP1 PUSH1 0x1 SLOAD DUP2 MSTORE PUSH1 0x20 ADD DUP5 PUSH20 0xFFFFFFFFFFFFFFFFFFFFFFFFFFFFFFFFFFFFFFFF AND DUP2 MSTORE PUSH1 0x20 ADD DUP4 DUP2 MSTORE PUSH1 0x20 ADD DUP3 DUP2 MSTORE PUSH1 0x20 ADD CALLER PUSH20 0xFFFFFFFFFFFFFFFFFFFFFFFFFFFFFFFFFFFFFFFF AND DUP2 MSTORE PUSH1 0x20 ADD PUSH1 0x0 ISZERO ISZERO DUP2 MSTORE POP PUSH1 0x2 PUSH1 0x0 PUSH1 0x1 SLOAD DUP2 MSTORE PUSH1 0x20 ADD SWAP1 DUP2 MSTORE PUSH1 0x20 ADD PUSH1 0x0 KECCAK256 PUSH1 0x0 DUP3 ADD MLOAD DUP2 PUSH1 0x0 ADD SSTORE PUSH1 0x20 DUP3 ADD MLOAD DUP2 PUSH1 0x1 ADD PUSH1 0x0 PUSH2 0x100 EXP DUP2 SLOAD DUP2 PUSH20 0xFFFFFFFFFFFFFFFFFFFFFFFFFFFFFFFFFFFFFFFF MUL NOT AND SWAP1 DUP4 PUSH20 0xFFFFFFFFFFFFFFFFFFFFFFFFFFFFFFFFFFFFFFFF AND MUL OR SWAP1 SSTORE POP PUSH1 0x40 DUP3 ADD MLOAD DUP2 PUSH1 0x2 ADD SSTORE PUSH1 0x60 DUP3 ADD MLOAD DUP2 PUSH1 0x3 ADD SSTORE PUSH1 0x80 DUP3 ADD MLOAD DUP2 PUSH1 0x4 ADD PUSH1 0x0 PUSH2 0x100 EXP DUP2 SLOAD DUP2 PUSH20 0xFFFFFFFFFFFFFFFFFFFFFFFFFFFFFFFFFFFFFFFF MUL NOT AND SWAP1 DUP4 PUSH20 0xFFFFFFFFFFFFFFFFFFFFFFFFFFFFFFFFFFFFFFFF AND MUL OR SWAP1 SSTORE POP PUSH1 0xA0 DUP3 ADD MLOAD DUP2 PUSH1 0x4 ADD PUSH1 0x14 PUSH2 0x100 EXP DUP2 SLOAD DUP2 PUSH1 0xFF MUL NOT AND SWAP1 DUP4 ISZERO ISZERO MUL OR SWAP1 SSTORE POP SWAP1 POP POP CALLER PUSH20 0xFFFFFFFFFFFFFFFFFFFFFFFFFFFFFFFFFFFFFFFF AND DUP4 PUSH20 0xFFFFFFFFFFFFFFFFFFFFFFFFFFFFFFFFFFFFFFFF AND PUSH32 0x655A0CF9C8DB81512BE9A76DC1C5AE5380B8816CE6AD659CD61B715E2999D59A PUSH1 0x1 SLOAD DUP6 DUP6 PUSH1 0x40 MLOAD PUSH2 0x68E SWAP4 SWAP3 SWAP2 SWAP1 PUSH2 0x927 JUMP JUMPDEST PUSH1 0x40 MLOAD DUP1 SWAP2 SUB SWAP1 LOG3 PUSH1 0x1 PUSH1 0x0 DUP2 SWAP1 SSTORE POP POP POP POP JUMP JUMPDEST PUSH1 0x0 DUP2 CALLDATALOAD SWAP1 POP PUSH2 0x6B2 DUP2 PUSH2 0xC02 JUMP JUMPDEST SWAP3 SWAP2 POP POP JUMP JUMPDEST PUSH1 0x0 DUP2 CALLDATALOAD SWAP1 POP PUSH2 0x6C7 DUP2 PUSH2 0xC19 JUMP JUMPDEST SWAP3 SWAP2 POP POP JUMP JUMPDEST PUSH1 0x0 DUP1 PUSH1 0x0 PUSH1 0x60 DUP5 DUP7 SUB SLT ISZERO PUSH2 0x6E2 JUMPI PUSH1 0x0 DUP1 REVERT JUMPDEST PUSH1 0x0 PUSH2 0x6F0 DUP7 DUP3 DUP8 ADD PUSH2 0x6A3 JUMP JUMPDEST SWAP4 POP POP PUSH1 0x20 PUSH2 0x701 DUP7 DUP3 DUP8 ADD PUSH2 0x6B8 JUMP JUMPDEST SWAP3 POP POP PUSH1 0x40 PUSH2 0x712 DUP7 DUP3 DUP8 ADD PUSH2 0x6B8 JUMP JUMPDEST SWAP2 POP POP SWAP3 POP SWAP3 POP SWAP3 JUMP JUMPDEST PUSH1 0x0 PUSH1 0x20 DUP3 DUP5 SUB SLT ISZERO PUSH2 0x72E JUMPI PUSH1 0x0 DUP1 REVERT JUMPDEST PUSH1 0x0 PUSH2 0x73C DUP5 DUP3 DUP6 ADD PUSH2 0x6B8 JUMP JUMPDEST SWAP2 POP POP SWAP3 SWAP2 POP POP JUMP JUMPDEST PUSH2 0x74E DUP2 PUSH2 0xA62 JUMP JUMPDEST DUP3 MSTORE POP POP JUMP JUMPDEST PUSH2 0x75D DUP2 PUSH2 0xA50 JUMP JUMPDEST DUP3 MSTORE POP POP JUMP JUMPDEST PUSH2 0x76C DUP2 PUSH2 0xA74 JUMP JUMPDEST DUP3 MSTORE POP POP JUMP JUMPDEST PUSH2 0x77B DUP2 PUSH2 0xABC JUMP JUMPDEST DUP3 MSTORE POP POP JUMP JUMPDEST PUSH1 0x0 PUSH2 0x78E PUSH1 0x1D DUP4 PUSH2 0x95E JUMP JUMPDEST SWAP2 POP PUSH2 0x799 DUP3 PUSH2 0xB87 JUMP JUMPDEST PUSH1 0x20 DUP3 ADD SWAP1 POP SWAP2 SWAP1 POP JUMP JUMPDEST PUSH1 0x0 PUSH2 0x7B1 PUSH1 0x1F DUP4 PUSH2 0x95E JUMP JUMPDEST SWAP2 POP PUSH2 0x7BC DUP3 PUSH2 0xBB0 JUMP JUMPDEST PUSH1 0x20 DUP3 ADD SWAP1 POP SWAP2 SWAP1 POP JUMP JUMPDEST PUSH1 0x0 PUSH2 0x7D4 PUSH1 0x16 DUP4 PUSH2 0x95E JUMP JUMPDEST SWAP2 POP PUSH2 0x7DF DUP3 PUSH2 0xBD9 JUMP JUMPDEST PUSH1 0x20 DUP3 ADD SWAP1 POP SWAP2 SWAP1 POP JUMP JUMPDEST PUSH2 0x7F3 DUP2 PUSH2 0xAB2 JUMP JUMPDEST DUP3 MSTORE POP POP JUMP JUMPDEST PUSH1 0x0 PUSH1 0x20 DUP3 ADD SWAP1 POP PUSH2 0x80E PUSH1 0x0 DUP4 ADD DUP5 PUSH2 0x745 JUMP JUMPDEST SWAP3 SWAP2 POP POP JUMP JUMPDEST PUSH1 0x0 PUSH1 0x60 DUP3 ADD SWAP1 POP PUSH2 0x829 PUSH1 0x0 DUP4 ADD DUP7 PUSH2 0x754 JUMP JUMPDEST PUSH2 0x836 PUSH1 0x20 DUP4 ADD DUP6 PUSH2 0x754 JUMP JUMPDEST PUSH2 0x843 PUSH1 0x40 DUP4 ADD DUP5 PUSH2 0x7EA JUMP JUMPDEST SWAP5 SWAP4 POP POP POP POP JUMP JUMPDEST PUSH1 0x0 PUSH1 0x20 DUP3 ADD SWAP1 POP DUP2 DUP2 SUB PUSH1 0x0 DUP4 ADD MSTORE PUSH2 0x864 DUP2 PUSH2 0x781 JUMP JUMPDEST SWAP1 POP SWAP2 SWAP1 POP JUMP JUMPDEST PUSH1 0x0 PUSH1 0x20 DUP3 ADD SWAP1 POP DUP2 DUP2 SUB PUSH1 0x0 DUP4 ADD MSTORE PUSH2 0x884 DUP2 PUSH2 0x7A4 JUMP JUMPDEST SWAP1 POP SWAP2 SWAP1 POP JUMP JUMPDEST PUSH1 0x0 PUSH1 0x20 DUP3 ADD SWAP1 POP DUP2 DUP2 SUB PUSH1 0x0 DUP4 ADD MSTORE PUSH2 0x8A4 DUP2 PUSH2 0x7C7 JUMP JUMPDEST SWAP1 POP SWAP2 SWAP1 POP JUMP JUMPDEST PUSH1 0x0 PUSH1 0x20 DUP3 ADD SWAP1 POP PUSH2 0x8C0 PUSH1 0x0 DUP4 ADD DUP5 PUSH2 0x7EA JUMP JUMPDEST SWAP3 SWAP2 POP POP JUMP JUMPDEST PUSH1 0x0 PUSH1 0xC0 DUP3 ADD SWAP1 POP PUSH2 0x8DB PUSH1 0x0 DUP4 ADD DUP10 PUSH2 0x7EA JUMP JUMPDEST PUSH2 0x8E8 PUSH1 0x20 DUP4 ADD DUP9 PUSH2 0x772 JUMP JUMPDEST PUSH2 0x8F5 PUSH1 0x40 DUP4 ADD DUP8 PUSH2 0x7EA JUMP JUMPDEST PUSH2 0x902 PUSH1 0x60 DUP4 ADD DUP7 PUSH2 0x7EA JUMP JUMPDEST PUSH2 0x90F PUSH1 0x80 DUP4 ADD DUP6 PUSH2 0x745 JUMP JUMPDEST PUSH2 0x91C PUSH1 0xA0 DUP4 ADD DUP5 PUSH2 0x763 JUMP JUMPDEST SWAP8 SWAP7 POP POP POP POP POP POP POP JUMP JUMPDEST PUSH1 0x0 PUSH1 0x60 DUP3 ADD SWAP1 POP PUSH2 0x93C PUSH1 0x0 DUP4 ADD DUP7 PUSH2 0x7EA JUMP JUMPDEST PUSH2 0x949 PUSH1 0x20 DUP4 ADD DUP6 PUSH2 0x7EA JUMP JUMPDEST PUSH2 0x956 PUSH1 0x40 DUP4 ADD DUP5 PUSH2 0x7EA JUMP JUMPDEST SWAP5 SWAP4 POP POP POP POP JUMP JUMPDEST PUSH1 0x0 DUP3 DUP3 MSTORE PUSH1 0x20 DUP3 ADD SWAP1 POP SWAP3 SWAP2 POP POP JUMP JUMPDEST PUSH1 0x0 PUSH2 0x97A DUP3 PUSH2 0xAB2 JUMP JUMPDEST SWAP2 POP PUSH2 0x985 DUP4 PUSH2 0xAB2 JUMP JUMPDEST SWAP3 POP DUP3 PUSH32 0xFFFFFFFFFFFFFFFFFFFFFFFFFFFFFFFFFFFFFFFFFFFFFFFFFFFFFFFFFFFFFFFF SUB DUP3 GT ISZERO PUSH2 0x9BA JUMPI PUSH2 0x9B9 PUSH2 0xB29 JUMP JUMPDEST JUMPDEST DUP3 DUP3 ADD SWAP1 POP SWAP3 SWAP2 POP POP JUMP JUMPDEST PUSH1 0x0 PUSH2 0x9D0 DUP3 PUSH2 0xAB2 JUMP JUMPDEST SWAP2 POP PUSH2 0x9DB DUP4 PUSH2 0xAB2 JUMP JUMPDEST SWAP3 POP DUP3 PUSH2 0x9EB JUMPI PUSH2 0x9EA PUSH2 0xB58 JUMP JUMPDEST JUMPDEST DUP3 DUP3 DIV SWAP1 POP SWAP3 SWAP2 POP POP JUMP JUMPDEST PUSH1 0x0 PUSH2 0xA01 DUP3 PUSH2 0xAB2 JUMP JUMPDEST SWAP2 POP PUSH2 0xA0C DUP4 PUSH2 0xAB2 JUMP JUMPDEST SWAP3 POP DUP2 PUSH32 0xFFFFFFFFFFFFFFFFFFFFFFFFFFFFFFFFFFFFFFFFFFFFFFFFFFFFFFFFFFFFFFFF DIV DUP4 GT DUP3 ISZERO ISZERO AND ISZERO PUSH2 0xA45 JUMPI PUSH2 0xA44 PUSH2 0xB29 JUMP JUMPDEST JUMPDEST DUP3 DUP3 MUL SWAP1 POP SWAP3 SWAP2 POP POP JUMP JUMPDEST PUSH1 0x0 PUSH2 0xA5B DUP3 PUSH2 0xA92 JUMP JUMPDEST SWAP1 POP SWAP2 SWAP1 POP JUMP JUMPDEST PUSH1 0x0 PUSH2 0xA6D DUP3 PUSH2 0xA92 JUMP JUMPDEST SWAP1 POP SWAP2 SWAP1 POP JUMP JUMPDEST PUSH1 0x0 DUP2 ISZERO ISZERO SWAP1 POP SWAP2 SWAP1 POP JUMP JUMPDEST PUSH1 0x0 PUSH2 0xA8B DUP3 PUSH2 0xA50 JUMP JUMPDEST SWAP1 POP SWAP2 SWAP1 POP JUMP JUMPDEST PUSH1 0x0 PUSH20 0xFFFFFFFFFFFFFFFFFFFFFFFFFFFFFFFFFFFFFFFF DUP3 AND SWAP1 POP SWAP2 SWAP1 POP JUMP JUMPDEST PUSH1 0x0 DUP2 SWAP1 POP SWAP2 SWAP1 POP JUMP JUMPDEST PUSH1 0x0 PUSH2 0xAC7 DUP3 PUSH2 0xACE JUMP JUMPDEST SWAP1 POP SWAP2 SWAP1 POP JUMP JUMPDEST PUSH1 0x0 PUSH2 0xAD9 DUP3 PUSH2 0xA92 JUMP JUMPDEST SWAP1 POP SWAP2 SWAP1 POP JUMP JUMPDEST PUSH1 0x0 PUSH2 0xAEB DUP3 PUSH2 0xAB2 JUMP JUMPDEST SWAP2 POP PUSH32 0xFFFFFFFFFFFFFFFFFFFFFFFFFFFFFFFFFFFFFFFFFFFFFFFFFFFFFFFFFFFFFFFF DUP3 EQ ISZERO PUSH2 0xB1E JUMPI PUSH2 0xB1D PUSH2 0xB29 JUMP JUMPDEST JUMPDEST PUSH1 0x1 DUP3 ADD SWAP1 POP SWAP2 SWAP1 POP JUMP JUMPDEST PUSH32 0x4E487B7100000000000000000000000000000000000000000000000000000000 PUSH1 0x0 MSTORE PUSH1 0x11 PUSH1 0x4 MSTORE PUSH1 0x24 PUSH1 0x0 REVERT JUMPDEST PUSH32 0x4E487B7100000000000000000000000000000000000000000000000000000000 PUSH1 0x0 MSTORE PUSH1 0x12 PUSH1 0x4 MSTORE PUSH1 0x24 PUSH1 0x0 REVERT JUMPDEST PUSH32 0x596F756420646F6E2774206861766520656E6F75676820666F756E6473000000 PUSH1 0x0 DUP3 ADD MSTORE POP JUMP JUMPDEST PUSH32 0x5265656E7472616E637947756172643A207265656E7472616E742063616C6C00 PUSH1 0x0 DUP3 ADD MSTORE POP JUMP JUMPDEST PUSH32 0x546865206974656D20646F65736E277420657869737400000000000000000000 PUSH1 0x0 DUP3 ADD MSTORE POP JUMP JUMPDEST PUSH2 0xC0B DUP2 PUSH2 0xA80 JUMP JUMPDEST DUP2 EQ PUSH2 0xC16 JUMPI PUSH1 0x0 DUP1 REVERT JUMPDEST POP JUMP JUMPDEST PUSH2 0xC22 DUP2 PUSH2 0xAB2 JUMP JUMPDEST DUP2 EQ PUSH2 0xC2D JUMPI PUSH1 0x0 DUP1 REVERT JUMPDEST POP JUMP INVALID LOG2 PUSH5 0x6970667358 0x22 SLT KECCAK256 0xD3 0xC LOG2 0xEB CODECOPY 0xB4 MSTORE 0xD9 0xF8 0xDF 0xE1 SGT CALLCODE SWAP2 PUSH3 0xF5AE39 0xB2 PUSH5 0x2A357C6DC5 PC RETURN SHL CALLDATALOAD STATICCALL 0x29 POP PUSH5 0x736F6C6343 STOP ADDMOD DIV STOP CALLER "
				},
				"gasEstimates": {
					"creation": {
						"codeDepositCost": "634800",
						"executionCost": "infinite",
						"totalCost": "infinite"
					},
					"external": {
						"feeAccount()": "infinite",
						"feePercent()": "infinite",
						"getTotalPrice(uint256)": "infinite",
						"itemCount()": "1152",
						"items(uint256)": "infinite",
						"makeItem(address,uint256,uint256)": "infinite",
						"purchaseItem(uint256)": "infinite"
					}
				},
				"methodIdentifiers": {
					"feeAccount()": "65e17c9d",
					"feePercent()": "7fd6f15c",
					"getTotalPrice(uint256)": "ca7dd375",
					"itemCount()": "6bfb0d01",
					"items(uint256)": "bfb231d2",
					"makeItem(address,uint256,uint256)": "fa00afc7",
					"purchaseItem(uint256)": "d38ea5bf"
				}
			},
			"storageLayout": {
				"storage": [
					{
						"astId": 10,
						"contract": "contracts/Marketplace.sol:Marketplace",
						"label": "_status",
						"offset": 0,
						"slot": "0",
						"type": "t_uint256"
					},
					{
						"astId": 179,
						"contract": "contracts/Marketplace.sol:Marketplace",
						"label": "itemCount",
						"offset": 0,
						"slot": "1",
						"type": "t_uint256"
					},
					{
						"astId": 198,
						"contract": "contracts/Marketplace.sol:Marketplace",
						"label": "items",
						"offset": 0,
						"slot": "2",
						"type": "t_mapping(t_uint256,t_struct(Item)193_storage)"
					}
				],
				"types": {
					"t_address_payable": {
						"encoding": "inplace",
						"label": "address payable",
						"numberOfBytes": "20"
					},
					"t_bool": {
						"encoding": "inplace",
						"label": "bool",
						"numberOfBytes": "1"
					},
					"t_contract(IERC721)155": {
						"encoding": "inplace",
						"label": "contract IERC721",
						"numberOfBytes": "20"
					},
					"t_mapping(t_uint256,t_struct(Item)193_storage)": {
						"encoding": "mapping",
						"key": "t_uint256",
						"label": "mapping(uint256 => struct Marketplace.Item)",
						"numberOfBytes": "32",
						"value": "t_struct(Item)193_storage"
					},
					"t_struct(Item)193_storage": {
						"encoding": "inplace",
						"label": "struct Marketplace.Item",
						"members": [
							{
								"astId": 181,
								"contract": "contracts/Marketplace.sol:Marketplace",
								"label": "itemId",
								"offset": 0,
								"slot": "0",
								"type": "t_uint256"
							},
							{
								"astId": 184,
								"contract": "contracts/Marketplace.sol:Marketplace",
								"label": "nft",
								"offset": 0,
								"slot": "1",
								"type": "t_contract(IERC721)155"
							},
							{
								"astId": 186,
								"contract": "contracts/Marketplace.sol:Marketplace",
								"label": "tokenId",
								"offset": 0,
								"slot": "2",
								"type": "t_uint256"
							},
							{
								"astId": 188,
								"contract": "contracts/Marketplace.sol:Marketplace",
								"label": "price",
								"offset": 0,
								"slot": "3",
								"type": "t_uint256"
							},
							{
								"astId": 190,
								"contract": "contracts/Marketplace.sol:Marketplace",
								"label": "seller",
								"offset": 0,
								"slot": "4",
								"type": "t_address_payable"
							},
							{
								"astId": 192,
								"contract": "contracts/Marketplace.sol:Marketplace",
								"label": "sold",
								"offset": 20,
								"slot": "4",
								"type": "t_bool"
							}
						],
						"numberOfBytes": "160"
					},
					"t_uint256": {
						"encoding": "inplace",
						"label": "uint256",
						"numberOfBytes": "32"
					}
				}
			},
			"userdoc": {
				"kind": "user",
				"methods": {},
				"version": 1
			}
		}
	}
}